:020000040800F2
:1000000000180020711100083D0C0008430C000886
:1000100000000000000000000000000000000000E0
:10002000000000000000000000000000490C000873
:100030000000000000000000530C00085D0C0008E8
:10004000F111000800000000F1110008F111000892
:10005000F11100086B0C0008F1110008F111000803
:1000600000000000F1110008F11100087D0C0008EB
:10007000F1110008950C0008F111000800000000C3
:10008000AD0C00080000000000000000F1110008A5
:1000900000000000F1110008F1110008F111000842
:1000A00000000000F111000800000000F11100083C
:1000B000C50C00080000000000000000F11100085D
:1000C00010B5064C2378002B07D1054B002B02D02E
:1000D000044800E000BF0123237010BD7C00002015
:1000E00000000000504B0008044B10B5002B03D05B
:1000F0000349044800E000BF10BDC04600000000F6
:1001000080000020504B0008002243088B4274D32B
:1001100003098B425FD3030A8B4244D3030B8B4208
:1001200028D3030C8B420DD3FF22090212BA030C11
:100130008B4202D31212090265D0030B8B4219D3F2
:1001400000E0090AC30B8B4201D3CB03C01A524112
:10015000830B8B4201D38B03C01A5241430B8B425A
:1001600001D34B03C01A5241030B8B4201D30B0343
:10017000C01A5241C30A8B4201D3CB02C01A52416A
:10018000830A8B4201D38B02C01A5241430A8B422D
:1001900001D34B02C01A5241030A8B4201D30B0216
:1001A000C01A5241CDD2C3098B4201D3CB01C01A30
:1001B000524183098B4201D38B01C01A524143093A
:1001C0008B4201D34B01C01A524103098B4201D328
:1001D0000B01C01A5241C3088B4201D3CB00C01A95
:1001E000524183088B4201D38B00C01A524143080D
:1001F0008B4201D34B00C01A5241411A00D2014632
:10020000524110467047FFE701B5002000F0F0F8BA
:1002100002BDC0460029F7D076E7704703460B437E
:100220007FD4002243088B4274D303098B425FD3EF
:10023000030A8B4244D3030B8B4228D3030C8B421B
:100240000DD3FF22090212BA030C8B4202D3121201
:10025000090265D0030B8B4219D300E0090AC30BD6
:100260008B4201D3CB03C01A5241830B8B4201D383
:100270008B03C01A5241430B8B4201D34B03C01A6C
:100280005241030B8B4201D30B03C01A5241C30AE4
:100290008B4201D3CB02C01A5241830A8B4201D355
:1002A0008B02C01A5241430A8B4201D34B02C01A3F
:1002B0005241030A8B4201D30B02C01A5241CDD2E4
:1002C000C3098B4201D3CB01C01A524183098B422F
:1002D00001D38B01C01A524143098B4201D34B0118
:1002E000C01A524103098B4201D30B01C01A52417B
:1002F000C3088B4201D3CB00C01A524183088B4202
:1003000001D38B00C01A524143088B4201D34B00EA
:10031000C01A5241411A00D201465241104670475C
:100320005DE0CA0F00D04942031000D34042534061
:1003300000229C4603098B422DD3030A8B4212D321
:10034000FC22890112BA030A8B420CD38901921153
:100350008B4208D3890192118B4204D389013AD090
:10036000921100E08909C3098B4201D3CB01C01A65
:10037000524183098B4201D38B01C01A5241430978
:100380008B4201D34B01C01A524103098B4201D366
:100390000B01C01A5241C3088B4201D3CB00C01AD3
:1003A000524183088B4201D38B00C01A5241D9D2EB
:1003B00043088B4201D34B00C01A5241411A00D26C
:1003C0000146634652415B10104601D34042002B68
:1003D00000D54942704763465B1000D3404201B5E7
:1003E000002000F005F802BD0029F8D016E770479C
:1003F0007047C04690B589B000AF0C243B19180077
:1004000014231A00002104F077FB2D4B5A692C4B62
:100410008021C9030A435A61294B5A698023DB03AF
:100420001340BB60BB68264B5A69254B802189026B
:100430000A435A61224B5A6980239B0213407B6016
:100440007B689023DB0500222221180001F049FB84
:100450003B1901221A603B19882252035A603B194A
:1004600002229A603A199023DB051100180001F06E
:10047000ABF93B1922221A603B1901225A603B1941
:1004800000229A603B190022DA603A199023DB05BA
:100490001100180001F098F93B1910221A603B195D
:1004A00000225A603B1902229A603A199023DB0518
:1004B0001100180001F088F9C046BD4609B090BD92
:1004C0000010024080B582B000AF494B1B78002B72
:1004D00012D0484B0021180002F0B0F99023DB0540
:1004E00000220221180001F0FCFA434B00221A609E
:1004F0003F4B00221A7077E03D4B01221A703F4BB0
:10050000DB6A01330A211800FFF7FEFD03009AB2EF
:100510003B4B1A80374B0021180002F0E9F890237A
:10052000DB0501220221180001F0DBFA58E0324B12
:100530001B68344A93423BDC9023DB0510211800F2
:1005400001F0B2FA03001A002F4B1A602E4B1B6801
:10055000012B07D19023DB0500222021180001F098
:10056000C0FA3DE000237B6009E0254B1B881A00A0
:100570007B685A43214B5A637B6801337B607B68FD
:10058000092BF2DD0A233B6009E01D4B1B881A0092
:100590003B685A43194B5A633B68013B3B603B68DD
:1005A000002BF2DC144B1B685A1C134B1A6017E02B
:1005B000104B0021180002F041F9144B180001F013
:1005C000C9FF9023DB0500220221180001F089FAFF
:1005D000094B00221A60064B00221A70C04603E045
:1005E000034B1B78002BA2D1C046BD4602B080BD94
:1005F00098000020F00000209C0000200004004033
:100600006E00002040771B00A4000020A8000020FE
:1006100080B584B000AF364B0021180002F068F8B6
:100620000023FB6055E0334BFA685200D35A5A1E40
:10063000314BDA62304BDB6A0133FA225100180089
:10064000FFF762FD03009AB22C4B1A806423BB6053
:1006500019E0294BDB6A9B08284A12881100BA6806
:100660004A439A18244B013A5A63254BFA685200C0
:10067000D35A1A1C9200D3189BB2180000F08AFAC1
:10068000BB680133BB60BB68C72BE2DDC8237B605E
:1006900019E0194BDB6A9B08184A128811007A6826
:1006A0004A439A18144B013A5A63154BFA685200A0
:1006B000D35A1A1C9200D3189BB2180000F06AFAA1
:1006C0007B68013B7B607B68642BE2DCFB68013369
:1006D000FB60FB681A2BA6D9054B0021180002F01D
:1006E000ADF8054B074ADA62C046BD4604B080BD8E
:1006F000F000002000000020000400406E000020F8
:10070000380000204FC3000080B582B000AF3F4BDF
:100710007B607B685A1E3E4BDA627B68002B00DAF6
:1007200001335B105A1E3A4B5A633A4B00211800B2
:1007300001F0DEFF384B180000F0C0FD354B002102
:10074000180002F07BF8354B7B607B685A1E304BFB
:10075000DA627B68002B00DA01335B105A1E2C4BE7
:100760005A632C4B0021180001F0C2FFFA2000F060
:10077000A5FD284B0021180002F060F8284B7B6093
:100780007B685A1E224BDA627B68002B00DA013349
:100790005B105A1E1E4B5A631E4B0021180001F0BD
:1007A000A7FFFA2000F08AFD1A4B0021180002F082
:1007B00045F81C4B7B607B685A1E154BDA627B68E0
:1007C000002B00DA01335B105A1E114B5A63114B98
:1007D0000021180001F08CFFFA2000F06FFD0D4B96
:1007E0000021180002F02AF80F4B7B607B685A1E2C
:1007F000074BDA627B68002B00DA01335B105A1E6C
:10080000034B5A63C046BD4602B080BD6C07000072
:1008100000040040F000002026020000C40900008F
:10082000B80B0000D80E000050C3000080B582B0A5
:1008300000AF00F0DFFC96235B00180000F03EFDE7
:1008400000F054F8FFF7D6FD00F000FB00F014FCB8
:1008500000F04AFA00F092F81F4B180001F03CFE3D
:100860009023DB051021180001F01EF903007B60C6
:100870007B68012B07D19023DB0500222021180083
:1008800001F02FF927E01549154B0122180003F05C
:100890003AF89023DB0501222021180001F021F90C
:1008A000642000F00BFDFFF7B3FEFA239B00180055
:1008B00000F004FD0B4B00221A600B4B00221A7053
:1008C000FFF700FEFFF720FF9023DB050022202129
:1008D000180001F006F9FEE7A8000020A0000020A3
:1008E0007C0100209C0000209800002090B591B071
:1008F00000AF10243B19180030231A00002104F027
:10090000FBF83B00180010231A00002104F0F4F853
:1009100021007B1801221A607B1801225A607B1883
:1009200002221A627B18802252025A627B188022AD
:1009300052039A627B180022DA627B18180001F0D9
:1009400009F9031E01D000F050F93B0007221A609C
:100950003B0002225A603B0000229A603B000022CA
:10096000DA603B000121180001F012FC031E01D0E7
:1009700000F03BF9C046BD4611B090BD80B500AF58
:1009800000220121052000F069FD052000F07BFD1B
:1009900000220221102000F061FD102000F073FD04
:1009A000002203211C2000F059FD1C2000F06BFDEB
:1009B000C046BD4680BD80B582B000AF7860C046FD
:1009C000BD4602B080BD000080B586B000AF786043
:1009D0007B681B68674A934200D0C6E06649674B54
:1009E0000122180002F08FFF654B7B61624B1B7880
:1009F000312B14D1624B7B617B695A1E614BDA62E9
:100A00007B69002B00DA01335B105A1E5D4B5A6381
:100A100059495A480A23012202F0CCFEA5E0564B60
:100A20001B78322B14D1564B7B617B695A1E554B78
:100A3000DA627B69002B00DA03339B105A1E514B9C
:100A40005A634D494D480A23012202F0B3FE8CE05F
:100A5000494B1B78332B15D1494B7B617B695A1E5F
:100A6000484BDA627B6905211800FFF7D7FB0300CA
:100A70005A1E444B5A63404940480A23012202F05F
:100A800099FE72E03C4B1B78342B15D13C4BFB603C
:100A9000FB685A1E3B4BDA62FB680A211800FFF71D
:100AA000BDFB03005A1E374B5A63334933480A23B0
:100AB000012202F07FFE58E02F4B1B78352B14D11A
:100AC000314B7B617B695A1E2E4BDA627B69002BAE
:100AD00000DA01335B105A1E2A4B5A632649274815
:100AE0000A23012202F066FE3FE0234B1B78362BDF
:100AF00014D1264B7B617B695A1E224BDA627B69DB
:100B0000002B00DA01335B105A1E1E4B5A631A4940
:100B10001A480A23012202F04DFE26E0164B1B78EC
:100B2000372B14D11A4B7B617B695A1E154BDA6245
:100B30007B69002B00DA01335B105A1E114B5A639C
:100B40000D490E480A23012202F034FE0DE00C4B41
:100B50003B613B695A1E0B4BDA623B69002B00DAA2
:100B600001335B105A1E074B5A63C046BD4606B0A0
:100B700080BDC04600440040A00000207C01002051
:100B800088130000000400401A410000204E0000BD
:100B9000A861000080B582B000AF0200BB1D1A80C2
:100BA000084B1B6800225A62C046064B1B685A6AF3
:100BB000BB1D1B889A42F8D3C046C046BD4602B052
:100BC00080BDC046A800002080B582B000AF020002
:100BD000BB1D1A809023DB0500222021180000F0A5
:100BE00080FFC046BD4602B080BD80B500AF72B682
:100BF000C046FEE780B582B000AF0F4B9A690E4B3E
:100C000001210A439A610C4B9B69012213407B60CE
:100C10007B68094BDA69084B802149050A43DA6190
:100C2000054BDA6980235B0513403B603B68C04697
:100C3000BD4602B080BDC0460010024080B500AF86
:100C4000FEE780B500AFFEE780B500AFC046BD4609
:100C500080BD80B500AFC046BD4680BD80B500AF49
:100C600000F010FBC046BD4680BD80B500AF01203E
:100C700000F054FFC046BD4680BD000080B500AF07
:100C8000034B180000F0E1FCC046BD4680BDC046E5
:100C90003801002080B500AF034B180001F044FE7E
:100CA000C046BD4680BDC046A800002080B500AF4C
:100CB000034B180001F038FEC046BD4680BDC0465B
:100CC000F000002080B500AF034B180002F07CFE5E
:100CD000C046BD4680BDC0467C01002080B500AF47
:100CE000C046BD4680BD000080B596B000AF482329
:100CF000FB18180010231A00002103F0FDFE40230A
:100D0000FB18180008231A00002103F0F5FE242325
:100D1000FB1818001C231A00002103F0EDFE3B1DF8
:100D2000180020231A00002103F0E6FE444B454A38
:100D30001A60434B2F225A60414B00229A60404B6D
:100D4000414ADA603E4B00221A613D4B00225A6153
:100D50003B4B00229A613A4B180001F06DFB031ED9
:100D600001D0FFF742FF48217B18802252011A6010
:100D70007A18334B1100180002F00AF8031E01D054
:100D8000FFF733FF2E4B180001F00AFC031E01D0C1
:100D9000FFF72BFF40217B1800221A607B180022EE
:100DA0005A607A18264B1100180002F0EFFB031E60
:100DB00001D0FFF71AFF24217B1800221A607B184C
:100DC00000225A607B1800229A607B180022DA60A9
:100DD0007B1800221A617B1800225A617B180022BE
:100DE0009A617918164B0422180001F0B3FE031E15
:100DF00001D0FFF7FAFE3B1D00221A603B1D0022C6
:100E00005A603B1D00229A603B1D0022DA603B1DA8
:100E100000221A613B1D802292015A613B1D002273
:100E2000DA613A1D064B1100180002F001FC031EA6
:100E300001D0FFF7DAFEC046BD4616B080BDC04601
:100E4000A8000020002C0140FFFF000080B58AB000
:100E500000AF2023FB18180008231A00002103F01C
:100E60004BFE3B1D18001C231A00002103F044FE1A
:100E7000244B254A1A60234B17225A60214B00222B
:100E80009A60204B3122DA601E4B00221A611D4B02
:100E900000229A611B4B180001F0DAFB031E01D0FF
:100EA000FFF7A3FE20217B1800221A607B18002286
:100EB0005A607A18134B1100180002F067FB031EEA
:100EC00001D0FFF792FE3B1D60221A603B1D1822E5
:100ED0005A603B1D00229A603B1D00221A61391D99
:100EE000084B0022180001F08DFE031E01D0FFF711
:100EF0007CFE044B180000F081F8C046BD460AB0E5
:100F000080BDC046F00000200004004080B584B0E1
:100F100000AF78607B681B680E4A934215D10E4B78
:100F20009A690D4B802109010A439A610A4B9A691B
:100F300080231B011340FB60FB68002200210D2071
:100F400000F08CFA0D2000F09EFAC046BD4604B0B9
:100F500080BDC046002C01400010024080B584B026
:100F600000AF78607B681B68204A934239D1204BE0
:100F7000DA691F4B02210A43DA611D4BDB69022249
:100F80001340FB60FB681B4B1B4A1A60194B102275
:100F90005A60184B00229A60164B8022DA60154B7B
:100FA000802252001A61134B8022D2005A61114BE9
:100FB00000229A610F4B0022DA610E4B180000F0FC
:100FC0007FFA031E01D0FFF710FE7B68094A5A62C0
:100FD000084B7A685A627B68064A9A63054B7A68BE
:100FE0005A62C046BD4604B080BDC0460004004001
:100FF00000100240380100204400024090B589B042
:1010000000AF78600C243B19180014231A0000214B
:1010100003F072FD7B681B68154A934224D1154B7F
:101020005A69144B802189020A435A61114B5A694B
:1010300080239B021340BB60BB6821007B184022C9
:101040001A607B1802225A607B1800229A607B1873
:101050000022DA607B1801221A617A189023DB05DE
:101060001100180000F0B0FBC046BD4609B090BDAD
:10107000000400400010024080B500AF144B154A38
:101080001A60134B962292015A60114B00229A600B
:101090000F4B0022DA600E4B00221A610C4B0C221F
:1010A0005A610B4B00229A61094B0022DA61084B0E
:1010B00000221A62064B00225A62054B180002F009
:1010C00025FB031E01D0FFF790FDC046BD4680BD45
:1010D0007C0100200044004090B58BB000AF7860E8
:1010E00014243B19180014231A00002103F004FDF6
:1010F0007B681B681C4A934232D11C4BDA691B4B3C
:10110000802189020A43DA61184BDA6980239B0245
:1011100013403B613B69154B5A69144B802189028E
:101120000A435A61114B5A6980239B021340FB60AA
:10113000FB6821007B180C221A607B1802225A607F
:101140007B1800229A607B180322DA607B18012248
:101150001A617A189023DB051100180000F034FBA7
:10116000C046BD460BB090BD004400400010024098
:101170001348854613480168090E134A914205D168
:101180001248134901601348134901601348144978
:10119000144A002302E0D458C4500433C4188C42CB
:1011A000F9D3114A114C002301E013600432A2422A
:1011B000FBD3FFF793FD03F0A7FCFFF737FBFEE738
:1011C00000180020040000001F000000181002405A
:1011D00001000000000001400000000000000020AD
:1011E0007C000020A84B00087C00002004020020A6
:1011F000FEE7000080B500AF074B1A68064B1021D0
:101200000A431A60002000F009F8FFF7F3FC0023FE
:101210001800BD4680BDC0460020024090B583B096
:1012200000AF7860144B1C68144B1B781900FA232C
:101230009800FEF769FF030019002000FEF764FF25
:101240000300180000F02FF9031E01D001230FE066
:101250007B68032B0BD8796801235B4200221800BE
:1012600000F0FCF8064B7A681A60002300E00123C6
:101270001800BD4603B090BD70000020780000202B
:101280007400002080B500AF054B1B781A00054B99
:101290001B68D218034B1A60C046BD4680BDC046CD
:1012A000780000200002002080B500AF024B1B68D0
:1012B0001800BD4680BDC0460002002080B584B045
:1012C00000AF7860FFF7F0FF0300BB607B68FB6056
:1012D000FB68013305D00A4B1B781A00FB689B188A
:1012E000FB60C046FFF7E0FF0200BB68D31AFA6854
:1012F0009A42F7D8C046C046BD4604B080BDC0463D
:101300007800002080B582B000AF0200FB1D1A708B
:10131000FB1D1B787F2B09D8FB1D1B781A001F2390
:101320001A40044B012191400A001A60C046BD4694
:1013300002B080BD00E100E090B583B000AF0200D4
:101340003960FB1D1A70FB1D1B787F2B28D82F4A94
:10135000FB1D1B785BB29B08C0339B009B58FA1D9A
:101360001278110003220A40D200FF2191400A00A6
:10137000D2431A4011003B689B01FF221A40FB1D1B
:101380001B78180003230340DB009A401F48FB1D15
:101390001B785BB29B080A43C0339B001A5031E0B4
:1013A0001B4AFB1D1B7819000F230B40083B9B08B1
:1013B00006339B00D31804331B68FA1D1278110002
:1013C00003220A40D200FF2191400A00D2431A4072
:1013D00011003B689B01FF221A40FB1D1B7818007F
:1013E00003230340DB009A400948FB1D1B781C00C7
:1013F0000F232340083B9B080A4306339B00C31876
:1014000004331A60C046BD4603B090BD00E100E061
:1014100000ED00E080B582B000AF78607B685A1EB6
:1014200080235B049A4201D3012310E00A4B7A68BF
:10143000013A5A6001235B4203211800FFF77CFF49
:10144000054B00229A60044B07221A600023180003
:10145000BD4602B080BDC04610E000E080B584B05B
:1014600000AFB9607A600F217B18021C1A70BA684D
:101470007B181B785BB211001800FFF75DFFC046B8
:10148000BD4604B080BD80B582B000AF0200FB1D38
:101490001A70FB1D1B785BB21800FFF733FFC046C4
:1014A000BD4602B080BD80B582B000AF78607B6879
:1014B0001800FFF7AFFF03001800BD4602B080BD63
:1014C00080B584B000AF78600023FB607B68002BA0
:1014D00001D1012336E07B682122022199547B68E7
:1014E0001B681B68FB60FB68184A1340FB607B6845
:1014F0005A687B689B681A437B68DB681A437B6881
:101500001B691A437B685B691A437B689B691A43B2
:101510007B68DB691343FA681343FB607B681B68D5
:10152000FA681A607B68180000F032F97B680022C4
:101530009A637B682122012199547B682022002133
:10154000995400231800BD4604B080BD0FC0FFFFB2
:1015500080B582B000AF78607B6821229B5CDBB2F3
:10156000022B08D07B6804229A637B68202200212A
:101570009954012320E07B681B681A687B681B680C
:101580000E218A431A607B681B681A687B681B6897
:1015900001218A431A607B681A6C7B68DB6B01212E
:1015A00091400A005A607B682122012199547B688E
:1015B00020220021995400231800BD4602B080BDAE
:1015C00080B584B000AF78600F217B1800221A70BC
:1015D0007B6821229B5CDBB2022B06D07B68042255
:1015E0009A637B1801221A7028E07B681B681A68CE
:1015F0007B681B680E218A431A607B681B681A6827
:101600007B681B6801218A431A607B681A6C7B68BF
:10161000DB6B012191400A005A607B682122012185
:1016200099547B682022002199547B685B6B002BC6
:1016300004D07B685B6B7A68100098470F23FB1817
:101640001B781800BD4604B080BD80B584B000AFE3
:1016500078607B68DB6B1B68FB607B681B681B68C2
:10166000BB607B681B6C04229A401300FA6813402D
:1016700024D0BB680422134020D07B681B681B6801
:101680002022134007D17B681B681A687B681B689F
:1016900004218A431A607B681A6C7B68DB6B042127
:1016A00091400A005A607B68DB6A002B00D16AE037
:1016B0007B68DB6A7A681000984764E07B681B6C83
:1016C00002229A401300FA6813402BD0BB68022212
:1016D000134027D07B681B681B68202213400BD166
:1016E0007B681B681A687B681B680A218A431A603A
:1016F0007B682122012199547B681A6C7B68DB6B23
:10170000022191400A005A607B68202200219954EE
:101710007B689B6A002B36D07B689B6A7A681000D6
:10172000984730E07B681B6C08229A401300FA68E7
:10173000134028D0BB680822134024D07B681B6864
:101740001A687B681B680E218A431A607B681A6CD2
:101750007B68DB6B012191400A005A607B680122A3
:101760009A637B682122012199547B682022002101
:1017700099547B681B6B002B05D07B681B6B7A68C8
:1017800010009847FFE7C046BD4604B080BD00008A
:1017900080B582B000AF78607B681B68084A9446C9
:1017A000634414211800FEF7AFFC03009A007B6825
:1017B0001A647B68034ADA63C046BD4602B080BD46
:1017C000F8FFFDBF0000024080B586B000AF786032
:1017D000396000237B614FE13B681B6801217A6916
:1017E00091400A001340FB60FB68002B00D140E1F0
:1017F0003B685B6803221340012B05D03B685B68A4
:1018000003221340022B30D17B689B683B617B69CC
:101810005B0003229A401300DA433B6913403B61AB
:101820003B68DA687B695B009A4013003A691343AE
:101830003B617B683A699A607B685B683B61012227
:101840007B699A401300DA433B6913403B613B6874
:101850005B681B0901221A407B699A4013003A69B0
:1018600013433B617B683A695A603B685B680322BB
:101870001340032B17D07B68DB683B617B695B00FF
:1018800003229A401300DA433B6913403B613B68F3
:101890009A687B695B009A4013003A6913433B6185
:1018A0007B683A69DA603B685B6803221340022B6D
:1018B00023D17B69DA087B6808329200D3583B61F8
:1018C0007B69072213409B000F229A401300DA43E2
:1018D0003B6913403B613B681A697B6907210B40F8
:1018E0009B009A4013003A6913433B617B69DA0815
:1018F0007B68083292003969D1507B681B683B6174
:101900007B695B0003229A401300DA433B69134072
:101910003B613B685B6803221A407B695B009A402D
:1019200013003A6913433B617B683A691A603B686C
:101930005A68C0239B02134000D19AE0544B9A6925
:10194000534B01210A439A61514B9B690122134079
:10195000BB60BB684F4A7B699B0802339B009B5866
:101960003B617B69032213409B000F229A401300C6
:10197000DA433B6913403B617A689023DB059A4266
:1019800013D07B68444A93420DD07B68434A93420C
:1019900007D07B68424A934201D1032306E0052326
:1019A00004E0022302E0012300E000237A6903211E
:1019B0000A40920093403A6913433B6135497B6981
:1019C0009B0802339B003A695A50364B1B683B61B7
:1019D000FB68DA433B6913403B613B685A688023EC
:1019E0005B02134003D03A69FB6813433B612D4B04
:1019F0003A691A602B4B5B683B61FB68DA433B69D1
:101A000013403B613B685A6880239B02134003D01C
:101A10003A69FB6813433B61224B3A695A60214B98
:101A20009B683B61FB68DA433B6913403B613B6861
:101A30005A6880235B03134003D03A69FB68134361
:101A40003B61184B3A699A60164BDB683B61FB6857
:101A5000DA433B6913403B613B685A6880239B0330
:101A6000134003D03A69FB6813433B610D4B3A695D
:101A7000DA607B6901337B613B681A687B69DA4015
:101A8000131E00D0A8E6C046C046BD4606B080BDC5
:101A90000010024000000140000400480008004817
:101AA000000C00480004014080B584B000AF7860AD
:101AB0000A00BB1C1A807B681B69BA1C1288134081
:101AC00004D00F23FB1801221A7003E00F23FB1828
:101AD00000221A700F23FB181B781800BD4604B0B3
:101AE00080BD80B582B000AF786008001100BB1CDB
:101AF000021C1A807B1C0A1C1A707B1C1B78002B92
:101B000004D0BB1C1A887B689A6103E0BB1C1A884E
:101B10007B689A62C046BD4602B080BD80B582B087
:101B200000AF0200BB1D1A80094B5B69BA1D128809
:101B3000134008D0064BBA1D12885A61BB1D1B8882
:101B40001800FFF741F8C046BD4602B080BDC04650
:101B50000004014080B588B000AF78607B68002B3E
:101B600001D1012305E37B681B680122134000D1EA
:101B70008DE0C54B5B680C221340042B0ED0C24B8A
:101B80005B680C221340082B16D1BF4B5A68C02348
:101B90005B021A4080235B029A420DD1BA4B1A684D
:101BA00080239B02134000D170E07B685B68002BB0
:101BB00000D06BE00123DCE27B685B68012B07D17E
:101BC000B14B1A68B04B802149020A431A602FE0DA
:101BD0007B685B68002B0CD1AB4B1A68AA4BAB49F6
:101BE0000A401A60A84B1A68A74BA9490A401A6014
:101BF0001EE07B685B68052B0ED1A34B1A68A24BD5
:101C00008021C9020A431A609F4B1A689E4B8021AB
:101C100049020A431A600BE09B4B1A689A4B9B4996
:101C20000A401A60984B1A68974B99490A401A6003
:101C30007B685B68002B14D0FFF736FB0300BB61A9
:101C400008E0FFF731FB0200BB69D31A642B01D90E
:101C500003238EE28C4B1A6880239B021340F0D042
:101C600015E0FFF721FB0300BB6108E0FFF71CFB59
:101C70000200BB69D31A642B01D9032379E2824B9A
:101C80001A6880239B021340F0D100E0C0467B68B5
:101C90001B680222134000D16CE07B4B5B680C2276
:101CA00013400ED0784B5B680C221340082B1FD1D9
:101CB000754B5A68C0235B021A4080231B029A426C
:101CC00016D1714B1B680222134005D07B68DB687C
:101CD000012B01D001234CE26B4B1B68F82293438C
:101CE00019007B681B69DA00674B0A431A6041E000
:101CF0007B68DB68002B24D0634B1A68624B0121A0
:101D00000A431A60FFF7D0FA0300BB6108E0FFF74F
:101D1000CBFA0200BB69D31A022B01D9032328E2B4
:101D2000594B1B6802221340F1D0574B1B68F82215
:101D3000934319007B681B69DA00534B0A431A600E
:101D400018E0514B1A68504B01218A431A60FFF783
:101D5000ABFA0300BB6108E0FFF7A6FA0200BB691B
:101D6000D31A022B01D9032303E2474B1B6802223B
:101D70001340F1D17B681B680822134036D07B6882
:101D8000DB69002B19D0404B5A6A3F4B01210A43B3
:101D90005A62FFF789FA0300BB6108E0FFF784FA93
:101DA0000200BB69D31A022B01D90323E1E1364BB0
:101DB0005B6A02221340F1D018E0334B5A6A324B6F
:101DC00001218A435A62FFF76FFA0300BB6108E002
:101DD000FFF76AFA0200BB69D31A022B01D9032369
:101DE000C7E1294B5B6A02221340F1D17B681B6873
:101DF0000422134000D1B5E01F203B1800221A70C6
:101E0000214BDA6980235B05134010D11E4BDA6940
:101E10001D4B802149050A43DA611B4BDA69802397
:101E20005B051340FB60FB683B1801221A70194BDD
:101E30001A6880235B0013401AD1164B1A68154BA1
:101E4000802149000A431A60FFF72EFA0300BB61A4
:101E500008E0FFF729FA0200BB69D31A642B01D905
:101E6000032386E10B4B1A6880235B001340F0D0FC
:101E70007B689B68012B0FD1034B1A6A024B01212F
:101E80000A431A6236E0C04600100240FFFFFEFF20
:101E9000FFFFFBFF007000407B689B68002B0CD1AC
:101EA000B64B1A6AB54B01218A431A62B34B1A6AC0
:101EB000B24B04218A431A621CE07B689B68052BA5
:101EC0000CD1AE4B1A6AAD4B04210A431A62AB4BDC
:101ED0001A6AAA4B01210A431A620BE0A74B1A6A3D
:101EE000A64B01218A431A62A44B1A6AA34B042110
:101EF0008A431A627B689B68002B14D0FFF7D4F9E1
:101F00000300BB6109E0FFF7CFF90200BB69D31AF8
:101F10009B4A934201D903232BE1984B1B6A02226F
:101F20001340F0D013E0FFF7BFF90300BB6109E0F5
:101F3000FFF7BAF90200BB69D31A914A934201D95B
:101F4000032316E18D4B1B6A02221340F0D11F239D
:101F5000FB181B78012B05D1884BDA69874B89491F
:101F60000A40DA617B681B681022134063D07B68EB
:101F70005B69012B2AD1814B5A6B804B04210A43A8
:101F80005A637E4B5A6B7D4B01210A435A63FFF71C
:101F90008BF90300BB6108E0FFF786F90200BB691B
:101FA000D31A022B01D90323E3E0744B5B6B0222AB
:101FB0001340F1D0714B5B6BF822934319007B689F
:101FC0009B69DA006D4B0A435A6334E07B685B69B6
:101FD000053311D1694B5A6B684B04218A435A630C
:101FE000664B5B6BF822934319007B689B69DA00B0
:101FF000624B0A435A631EE0604B5A6B5F4B0421ED
:102000000A435A635D4B5A6B5C4B01218A435A6306
:10201000FFF74AF90300BB6108E0FFF745F902004A
:10202000BB69D31A022B01D90323A2E0534B5B6B8C
:1020300002221340F1D17B681B6A002B00D197E08C
:102040004E4B5B680C221340082B00D16BE07B6881
:102050001B6A022B4CD1494B1A68484B4A490A402B
:102060001A60FFF721F90300BB6108E0FFF71CF9D4
:102070000200BB69D31A022B01D9032379E03F4B3D
:102080001A6880239B041340F0D13C4BDB6A0F227B
:10209000934319007B68DA6A384B0A43DA62374B9C
:1020A0005B683A4A134019007B689A6A7B685B6AEE
:1020B0001A43324B0A435A60304B1A682F4B802127
:1020C00049040A431A60FFF7EFF80300BB6108E018
:1020D000FFF7EAF80200BB69D31A022B01D90323E8
:1020E00047E0264B1A6880239B041340F0D03FE062
:1020F000224B1A68214B24490A401A60FFF7D4F892
:102100000300BB6108E0FFF7CFF80200BB69D31AF8
:10211000022B01D903232CE0184B1A6880239B045F
:102120001340F0D124E07B681B6A012B01D101230D
:102130001FE0124B5B687B61104BDB6A3B617A6985
:10214000C0235B021A407B685B6A9A420ED13B69EE
:102150000F221A407B68DB6A9A4207D17A69F02322
:102160009B031A407B689B6A9A4201D0012300E0DE
:1021700000231800BD4608B080BDC04600100240D4
:1021800088130000FFFFFFEFFFFFFFFEFF7FC2FF8E
:1021900080B584B000AF786039607B68002B01D1D6
:1021A0000123B3E05B4B1B68012213403A689A425B
:1021B00011D9584B1B68012293431900554B3A68BB
:1021C0000A431A60534B1B68012213403A689A4233
:1021D00001D001239AE07B681B680222134015D0CE
:1021E0007B681B680422134006D04B4B5A684A4B4D
:1021F000E021C9000A435A60474B5B68F0229343D1
:1022000019007B689A68444B0A435A607B681B68D4
:102210000122134040D07B685B68012B07D13E4B05
:102220001A6880239B02134014D101236EE07B685F
:102230005B68022B07D1384B1A6880239B0413403C
:1022400008D1012362E0344B1B680222134001D104
:1022500001235BE0304B5B680322934319007B68EA
:102260005A682D4B0A435A60FFF71EF80300FB60C3
:1022700009E0FFF719F80200FB68D31A274A9342D6
:1022800001D9032342E0244B5B680C221A407B688F
:102290005B689B009A42ECD11E4B1B6801221340E5
:1022A0003A689A4211D21B4B1B68012293431900D2
:1022B000184B3A680A431A60164B1B6801221340F8
:1022C0003A689A4201D0012320E07B681B6804220F
:1022D000134009D0104B5B68114A134019007B680A
:1022E000DA680D4B0A435A6000F020F801000A4BEF
:1022F0005B681B090F2213400A4AD35C0A00DA40CC
:10230000094B1A600020FEF789FF00231800BD4624
:1023100004B080BD0020024000100240881300007D
:10232000FFF8FFFF884B00087000002090B58FB0C9
:1023300000AF1423FB182C4A13CA13C312681A6087
:102340003B1D2A4A13CA13C312681A600023FB629A
:102350000023BB6200237B6300237B6200233B637B
:10236000234B5B68FB62FB6A0C221340042B02D0F8
:10237000082B03D02FE01F4B3B632FE0FB6A9B0C25
:102380000F2213401422BA18D35C7B62184BDB6A0D
:102390000F2213403A1DD35CBB62FA6AC0235B0272
:1023A0001A4080235B029A4209D1B96A1148FDF7AD
:1023B000ABFE03001A007B6A53437B6308E0B96AF3
:1023C0000C48FDF7A1FE03001A007B6A53437B63B0
:1023D0007B6B3B6302E0074B3B63C0463B6B1800E3
:1023E000BD460FB090BDC046684B0008784B000852
:1023F0000010024000127A0080B500AF024B1B684B
:102400001800BD4680BDC0467000002080B500AFFA
:10241000FFF7F2FF0100064B5B681B0A072213401F
:10242000044AD35CD9400B001800BD4680BDC046AD
:1024300000100240984B000880B582B000AF786071
:102440007B68002B01D1012342E07B683D229B5C2D
:10245000DBB2002B07D17B683C22002199547B68BA
:102460001800FEF753FD7B683D22022199547B68DA
:102470001A687B6804331900100000F07DFD7B684A
:102480004622012199547B683E22012199547B68A0
:102490003F22012199547B684022012199547B6895
:1024A0004122012199547B684222012199547B6881
:1024B0004322012199547B684422012199547B686D
:1024C0004522012199547B683D2201219954002322
:1024D0001800BD4602B080BD80B584B000AF786002
:1024E0007B683D229B5CDBB2012B01D0012328E0FD
:1024F0007B683D22022199547B681B68134A9342F2
:1025000004D07B681B68124A934211D17B681B6818
:102510009B6807221340FB60FB68062B10D07B688A
:102520001B681A687B681B6801210A431A6007E070
:102530007B681B681A687B681B6801210A431A6064
:1025400000231800BD4604B080BDC046002C0140E9
:102550000004004080B582B000AF78607B681B68E3
:102560001B6A0D4A13400DD17B681B681B6A0B4A1E
:10257000134007D17B681B681A687B681B680121C0
:102580008A431A607B683D22012199540023180078
:10259000BD4602B080BDC0461111000044040000D9
:1025A00080B582B000AF78607B68002B01D1012339
:1025B00042E07B683D229B5CDBB2002B07D17B684D
:1025C0003C22002199547B68180000F039F87B68A0
:1025D0003D22022199547B681A687B6804331900F4
:1025E000100000F0C9FC7B684622012199547B68E9
:1025F0003E22012199547B683F22012199547B6836
:102600004022012199547B684122012199547B6821
:102610004222012199547B684322012199547B680D
:102620004422012199547B684522012199547B68F9
:102630003D220121995400231800BD4602B080BDFF
:1026400080B582B000AF7860C046BD4602B080BDA4
:1026500080B582B000AF78607B68002B01D1012388
:1026600042E07B683D229B5CDBB2002B07D17B689C
:102670003C22002199547B681800FEF76FFC7B68B0
:102680003D22022199547B681A687B680433190043
:10269000100000F071FC7B684622012199547B6890
:1026A0003E22012199547B683F22012199547B6885
:1026B0004022012199547B684122012199547B6871
:1026C0004222012199547B684322012199547B685D
:1026D0004422012199547B684522012199547B6849
:1026E0003D220121995400231800BD4602B080BD4F
:1026F00080B584B000AF786039603B68002B08D1AA
:102700007B683E229B5CDBB2013B5A1E9341DBB2ED
:102710001FE03B68042B08D17B683F229B5CDBB247
:10272000013B5A1E9341DBB213E03B68082B08D1F2
:102730007B6840229B5CDBB2013B5A1E9341DBB2BB
:1027400007E07B6841229B5CDBB2013B5A1E934150
:10275000DBB2002B01D0012364E03B68002B04D1E5
:102760007B683E220221995413E03B68042B04D17C
:102770007B683F22022199540BE03B68082B04D16F
:102780007B6840220221995403E07B6841220221A8
:1027900099547B681B6839680122180000F0D2FE4A
:1027A0007B681B68214A934209D07B681B68204ADA
:1027B000934204D07B681B681E4A934201D10123D7
:1027C00000E00023002B08D07B681B685A6C7B68F4
:1027D0001B68802109020A435A647B681B68134AFC
:1027E000934204D07B681B68134A934211D17B68E3
:1027F0001B689B6807221340FB60FB68062B10D008
:102800007B681B681A687B681B6801210A431A6091
:1028100007E07B681B681A687B681B6801210A4314
:102820001A6000231800BD4604B080BD002C014092
:1028300000440140004801400004004080B582B0DF
:1028400000AF786039607B681B6839680022180027
:1028500000F078FE7B681B682D4A934209D07B68A4
:102860001B682C4A934204D07B681B682A4A934217
:1028700001D1012300E00023002B13D07B681B68EB
:102880001B6A264A13400DD17B681B681B6A244AC9
:10289000134007D17B681B685A6C7B681B68214911
:1028A0000A405A647B681B681B6A1C4A13400DD19E
:1028B0007B681B681B6A1A4A134007D17B681B6838
:1028C0001A687B681B6801218A431A603B68002BE9
:1028D00004D17B683E220121995413E03B68042B0C
:1028E00004D17B683F22012199540BE03B68082BFF
:1028F00004D17B6840220121995403E07B68412286
:102900000121995400231800BD4602B080BDC04685
:10291000002C01400044014000480140111100001A
:1029200044040000FF7FFFFF80B582B000AF7860F5
:102930007B681B681B6902221340022B24D17B6831
:102940001B68DB6802221340022B1DD17B681B68C9
:10295000032252421A617B6801221A777B681B6846
:102960009B690322134004D07B68180000F0ECFA46
:1029700007E07B68180000F0DFFA7B68180000F0C1
:10298000EBFA7B6800221A777B681B681B690422BC
:102990001340042B25D17B681B68DB68042213409D
:1029A000042B1ED17B681B68052252421A617B688A
:1029B00002221A777B681B689A69C0239B00134028
:1029C00004D07B68180000F0BFFA07E07B681800AD
:1029D00000F0B2FA7B68180000F0BEFA7B680022B3
:1029E0001A777B681B681B6908221340082B24D1C7
:1029F0007B681B68DB6808221340082B1DD17B68AD
:102A00001B68092252421A617B6804221A777B688C
:102A10001B68DB690322134004D07B68180000F0B8
:102A200093FA07E07B68180000F086FA7B681800CC
:102A300000F092FA7B6800221A777B681B681B699A
:102A400010221340102B25D17B681B68DB681022F5
:102A50001340102B1ED17B681B68112252421A6151
:102A60007B6808221A777B681B68DA69C0239B00A1
:102A7000134004D07B68180000F066FA07E07B681A
:102A8000180000F059FA7B68180000F065FA7B68BE
:102A900000221A777B681B681B6901221340012BF7
:102AA0000FD17B681B68DB6801221340012B08D122
:102AB0007B681B68022252421A617B681800FDF78E
:102AC0007AFF7B681B681B6980221340802B0FD123
:102AD0007B681B68DB6880221340802B08D17B68F1
:102AE0001B68812252421A617B68180000F006FEC2
:102AF0007B681B681B6940221340402B0FD17B6809
:102B00001B68DB6840221340402B08D17B681B68A0
:102B1000412252421A617B68180000F025FA7B6856
:102B20001B681B6920221340202B0FD17B681B6878
:102B3000DB6820221340202B08D17B681B682122F0
:102B400052421A617B68180000F0D0FDC046BD46B5
:102B500002B080BD80B586B000AFF860B9607A6021
:102B60001723FB1800221A70FB683C229B5C012B88
:102B700001D1022342E0FB683C22012199547B6889
:102B80000C2B27D07B680C2B2CD87B68082B19D0FA
:102B90007B68082B26D87B68002B03D07B68042B2E
:102BA00008D01FE0FB681B68BA681100180000F02D
:102BB0004FFA1CE0FB681B68BA681100180000F0AF
:102BC000C5FA14E0FB681B68BA681100180000F031
:102BD0003BFB0CE0FB681B68BA681100180000F0B2
:102BE000B3FB04E01723FB1801221A70C046FB68F0
:102BF0003C22002199541723FB181B781800BD466E
:102C000006B080BD80B586B000AFF860B9607A606C
:102C10001723FB1800221A70FB683C229B5C012BD7
:102C200001D10223ADE0FB683C22012199547B686D
:102C30000C2B00D176E07B680C2B00D995E07B68EB
:102C4000082B4ED07B68082B00D98EE07B68002BC8
:102C500003D07B68042B21D087E0FB681B68BA682F
:102C60001100180000F0F4F9FB681B689A69FB6812
:102C70001B6808210A439A61FB681B689A69FB6814
:102C80001B6804218A439A61FB681B689969BB68C9
:102C90001A69FB681B680A439A616BE0FB681B6852
:102CA000BA681100180000F051FAFB681B689A69B5
:102CB000FB681B68802109010A439A61FB681B6855
:102CC0009A69FB681B6831490A409A61FB681B6876
:102CD0009969BB681B691A02FB681B680A439A6101
:102CE00048E0FB681B68BA681100180000F0ACFAF5
:102CF000FB681B68DA69FB681B6808210A43DA6114
:102D0000FB681B68DA69FB681B6804218A43DA6187
:102D1000FB681B68D969BB681A69FB681B680A43B2
:102D2000DA6127E0FB681B68BA681100180000F040
:102D30000BFBFB681B68DA69FB681B6880210901D3
:102D40000A43DA61FB681B68DA69FB681B680F4994
:102D50000A40DA61FB681B68D969BB681B691A0203
:102D6000FB681B680A43DA6104E01723FB180122A1
:102D70001A70C046FB683C22002199541723FB18A7
:102D80001B781800BD4606B080BDC046FFFBFFFFA4
:102D900080B584B000AF786039600F23FB18002243
:102DA0001A707B683C229B5C012B01D10223BCE0A2
:102DB0007B683C22012199547B683D220221995471
:102DC0007B681B689B68BB60BB6877229343BB60D2
:102DD000BB68584A1340BB607B681B68BA689A603E
:102DE0003B681B6880229201934240D0802292016E
:102DF000934200D988E080225201934200D188E0BA
:102E000080225201934200D97EE0702B18D000D965
:102E10007AE0602B4FD000D976E0502B3BD000D920
:102E200072E0402B57D000D96EE0302B63D06BD8C6
:102E3000202B60D068D8002B5DD0102B5BD063E0D6
:102E40007B6818683B6899683B685A683B68DB6830
:102E500000F058FB7B681B689B68BB60BB687722EF
:102E60001343BB607B681B68BA689A6052E07B685A
:102E700018683B6899683B685A683B68DB6800F0F3
:102E800041FB7B681B689A687B681B688021C901CD
:102E90000A439A603EE07B6818683B6859683B6863
:102EA000DB681A0000F0B4FA7B681B685021180038
:102EB00000F00EFB2EE07B6818683B6859683B68A1
:102EC000DB681A0000F0D2FA7B681B6860211800EA
:102ED00000F0FEFA1EE07B6818683B6859683B68A2
:102EE000DB681A0000F094FA7B681B684021180028
:102EF00000F0EEFA0EE07B681A683B681B68190068
:102F0000100000F0E5FA05E00F23FB1801221A700B
:102F100000E0C0467B683D22012199547B683C2239
:102F2000002199540F23FB181B781800BD4604B0EC
:102F300080BDC046FF00FFFF80B582B000AF786063
:102F4000C046BD4602B080BD80B582B000AF78609B
:102F5000C046BD4602B080BD80B582B000AF78608B
:102F6000C046BD4602B080BD80B582B000AF78607B
:102F7000C046BD4602B080BD80B584B000AF786069
:102F800039607B681B68FB607B682B4A934203D0E7
:102F90007B682A4A934208D1FB6870229343FB6006
:102FA0003B685B68FA681343FB607B68224A934284
:102FB0000FD07B68214A93420BD07B68204A934212
:102FC00007D07B681F4A934203D07B681E4A934216
:102FD00008D1FB681D4A1340FB603B68DB68FA6858
:102FE0001343FB60FB68802293431A003B685B69D4
:102FF0001343FB607B68FA681A603B689A687B68D9
:10300000DA623B681A687B689A627B680A4A934274
:1030100007D07B680B4A934203D07B680A4A9342ED
:1030200003D13B681A697B681A637B6801225A6185
:10303000C046BD4604B080BD002C014000040040E5
:10304000002000400044014000480140FFFCFFFF19
:1030500080B586B000AF786039607B681B6A01225A
:1030600093431A007B681A627B681B6A7B617B68EA
:103070005B683B617B689B69FB60FB6870229343E4
:10308000FB60FB6803229343FB603B681B68FA68A4
:103090001343FB607B69022293437B613B689B681F
:1030A0007A6913437B617B68234A934207D07B682C
:1030B000224A934203D07B68214A93420CD17B6918
:1030C000082293437B613B68DB687A6913437B6129
:1030D0007B69042293437B617B68174A934207D044
:1030E0007B68164A934203D07B68154A934211D1FC
:1030F0003B69144A13403B613B69134A13403B61EF
:103100003B685B693A6913433B613B689B693A6979
:1031100013433B617B683A695A607B68FA689A613D
:103120003B685A687B685A637B687A691A62C04652
:10313000BD4606B080BDC046002C014000440140A1
:1031400000480140FFFEFFFFFFFDFFFF80B586B096
:1031500000AF786039607B681B6A102293431A00C5
:103160007B681A627B681B6A7B617B685B683B617A
:103170007B689B69FB60FB682C4A1340FB60FB6823
:103180002B4A1340FB603B681B681B02FA68134321
:10319000FB607B69202293437B613B689B681B013A
:1031A0007A6913437B617B68224A93420DD17B6924
:1031B000802293437B613B68DB681B017A69134380
:1031C0007B617B69402293437B617B68194A934210
:1031D00007D07B68184A934203D07B68174A934212
:1031E00013D13B69164A13403B613B69154A1340B2
:1031F0003B613B685B699B003A6913433B613B68F9
:103200009B699B003A6913433B617B683A695A604A
:103210007B68FA689A613B685A687B689A637B6846
:103220007A691A62C046BD4606B080BDFF8FFFFFB7
:10323000FFFCFFFF002C014000440140004801401A
:10324000FFFBFFFFFFF7FFFF80B586B000AF7860A0
:1032500039607B681B6A334A1A407B681A627B6854
:103260001B6A7B617B685B683B617B68DB69FB6039
:10327000FB6870229343FB60FB6803229343FB606F
:103280003B681B68FA681343FB607B69264A13405E
:103290007B613B689B681B027A6913437B617B6897
:1032A000224A93420DD17B69214A13407B613B68DE
:1032B000DB681B027A6913437B617B691D4A1340FB
:1032C0007B617B68194A934207D07B681A4A934214
:1032D00003D07B68194A934213D13B69184A1340C3
:1032E0003B613B69174A13403B613B685B691B01CB
:1032F0003A6913433B613B689B691B013A6913437D
:103300003B617B683A695A607B68FA68DA613B68BE
:103310005A687B68DA637B687A691A62C046BD4680
:1033200006B080BDFFFEFFFFFFFDFFFF002C014048
:10333000FFF7FFFFFFFBFFFF004401400048014093
:10334000FFEFFFFFFFDFFFFF80B586B000AF7860C3
:1033500039607B681B6A264A1A407B681A627B6860
:103360001B6A3B617B685B687B617B68DB69FB6038
:10337000FB68204A1340FB60FB681F4A1340FB6058
:103380003B681B681B02FA681343FB603B691B4ADE
:1033900013403B613B689B681B033A6913433B61E5
:1033A0007B68174A934207D07B68164A934203D042
:1033B0007B68154A934209D17B69144A13407B61AB
:1033C0003B685B699B017A6913437B617B687A691F
:1033D0005A607B68FA68DA613B685A687B681A64ED
:1033E0007B683A691A62C046BD4606B080BDC046D9
:1033F000FFEFFFFFFF8FFFFFFFFCFFFFFFDFFFFF80
:10340000002C01400044014000480140FFBFFFFF85
:1034100080B586B000AFF860B9607A60FB681B6A5F
:103420007B61FB681B6A012293431A00FB681A62E6
:10343000FB689B693B613B69F02293433B617B687E
:103440001B013A6913433B617B690A2293437B6109
:103450007A69BB6813437B61FB683A699A61FB68D0
:103460007A691A62C046BD4606B080BD80B586B096
:1034700000AFF860B9607A60FB681B6A1022934362
:103480001A00FB681A62FB689B697B61FB681B6A18
:103490003B617B690D4A13407B617B681B037A6942
:1034A00013437B613B69A02293433B61BB681B01D3
:1034B0003A6913433B61FB687A699A61FB683A6930
:1034C0001A62C046BD4606B080BDC046FF0FFFFF72
:1034D00080B584B000AF786039607B689B68FB6022
:1034E000FB6870229343FB603A68FB681343072232
:1034F0001343FB607B68FA689A60C046BD4604B01F
:1035000080BD000080B586B000AFF860B9607A6019
:103510003B60FB689B687B617B69094A13407B6168
:103520003B681A027B681A43BB6813437A691343EA
:103530007B61FB687A699A60C046BD4606B080BD73
:10354000FF00FFFF80B586B000AFF860B9607A6019
:10355000BB681F22134001229A4013007B61FB6865
:103560001B6A7A69D2431A40FB681A62FB681A6ABE
:10357000BB681F210B40796899400B001A43FB6818
:103580001A62C046BD4606B080BD000080B584B05A
:1035900000AF786039607B683C229B5C012B01D1D5
:1035A00002233CE07B683C22012199547B683D2248
:1035B000022199547B681B685B68FB607B681B6811
:1035C0009B68BB60FB6870229343FB603B681B6891
:1035D000FA681343FB607B681B68FA685A607B6873
:1035E0001B68114A934204D07B681B680F4A9342C0
:1035F0000CD1BB6880229343BB603B685B68BA68B0
:103600001343BB607B681B68BA689A607B683D2285
:10361000012199547B683C22002199540023180011
:10362000BD4604B080BDC046002C014000040040EF
:1036300080B584B000AF786039600023FB607B68A0
:103640003C229B5C012B01D102233EE07B683C22A3
:1036500001219954FB68FF2293431A003B68DB6801
:103660001343FB60FB681B4A1A403B689B6813438B
:10367000FB60FB68184A1A403B685B681343FB60B9
:10368000FB68164A1A403B681B681343FB60FB68E3
:10369000134A1A403B681B691343FB60FB68114ADD
:1036A0001A403B685B691343FB60FB680E4A1A4093
:1036B0003B68DB691343FB607B681B68FA685A64EC
:1036C0007B683C220021995400231800BD4604B0B9
:1036D00080BDC046FFFCFFFFFFFBFFFFFFF7FFFFC2
:1036E000FFEFFFFFFFDFFFFFFFBFFFFF80B582B0EF
:1036F00000AF7860C046BD4602B080BD80B582B0E4
:1037000000AF7860C046BD4602B080BD80B582B0D3
:1037100000AF78607B68002B01D1012344E07B6817
:103720009B6F002B07D17B687422002199547B6822
:103730001800FDF7D1FC7B6824229A677B681B6820
:103740001A687B681B6801218A431A607B6818002D
:1037500000F016FC0300012B01D1012324E07B685B
:103760005B6A002B03D07B68180000F049FD7B6882
:103770001B685A687B681B680D490A405A607B6861
:103780001B689A687B681B6808218A439A607B687B
:103790001B681A687B681B6801210A431A607B68F2
:1037A000180000F0E1FD03001800BD4602B080BD26
:1037B000FFF7FFFF80B58AB002AFF860B9603B60E9
:1037C000BB1D1A80FB689B6F202B00D096E0BB6866
:1037D000002B03D0BB1D1B88002B01D101238EE0E1
:1037E000FB689A6880235B019A4209D1FB681B69D8
:1037F000002B05D1BB680122134001D001237EE0DC
:10380000FB6874229B5C012B01D1022377E0FB68EB
:10381000742201219954FB68802200219950FB6891
:1038200021229A67FDF740FD03007B61FB68BA1D0A
:10383000502112885A52FB68BA1D522112885A52DE
:10384000FB689A6880235B019A4208D1FB681B6978
:10385000002B04D10023FB61BB68BB6103E0BB68A4
:10386000FB610023BB61FB687422002199542DE0A9
:103870007A69F8683B68009313000022802100F009
:10388000BBFD031E01D0032339E0FB69002B0BD1E4
:10389000BB691A88FB681B68D205D20D92B21A85E3
:1038A000BB690233BB6108E0FB691A78FB681B68DF
:1038B00092B21A85FB690133FB61FB6852229B5A65
:1038C0009BB2013B99B2FB6852229952FB6852228B
:1038D0009B5A9BB2002BCBD17A69F8683B68009366
:1038E00013000022402100F087FD031E01D00323B6
:1038F00005E0FB6820229A67002300E002231800FD
:10390000BD4608B080BD80B588B000AFF860B96032
:10391000BB1D1A80FB68DB6F202B50D1BB68002BCE
:1039200003D0BB1D1B88002B01D1012348E0FB689D
:103930009A6880235B019A4209D1FB681B69002BBE
:1039400005D1BB680122134001D0012338E0FB6898
:1039500074229B5C012B01D1022331E0FB687422AD
:1039600001219954FB6800221A66FB681B685A689B
:1039700080231B04134019D0EFF310833B613B6994
:10398000FB6101237B617B6983F31088C046FB6880
:103990001B681A68FB681B688021C9040A431A6007
:1039A000FB69BB61BB6983F31088C046BB1D1A88E5
:1039B000B968FB68180000F0E3FD030000E0022393
:1039C0001800BD4608B080BD90B5ABB000AF7860C0
:1039D0007B681B68DB69A422B9180B607B681B68D5
:1039E0001B68A02039180B607B681B689B689C21B2
:1039F00079180B601100BB181B68994A1340982274
:103A0000BC182360BB181B68002B14D17B181B68E3
:103A1000202213400FD03B181B68202213400AD0ED
:103A20007B685B6E002B00D17EE27B685B6E7A6800
:103A30001000984778E29823FB181B68002B00D1F0
:103A400014E19C23FB181B680122134006D1A0231C
:103A5000FB181B68834A134000D107E1A423FB181D
:103A60001B680122134012D0A023FB181A68802380
:103A70005B0013400BD07B681B6801221A627B68D5
:103A800080229B5801221A437B6880215A50A4232C
:103A9000FB181B680222134011D09C23FB181B68E3
:103AA000012213400BD07B681B6802221A627B68DC
:103AB00080229B5804221A437B6880215A50A423F9
:103AC000FB181B680422134011D09C23FB181B68B1
:103AD000012213400BD07B681B6804221A627B68AA
:103AE00080229B5802221A437B6880215A50A423CB
:103AF000FB181B680822134017D0A023FB181B6873
:103B00002022134005D19C23FB181B68012213407F
:103B10000BD07B681B6808221A627B6880229B5846
:103B200008221A437B6880215A50A423FB181A6884
:103B300080231B01134013D0A023FB181A68802395
:103B4000DB0413400CD07B681B68802212011A62D0
:103B50007B6880229B5820221A437B6880215A5020
:103B60007B6880229B58002B00D1DFE1A423FB1847
:103B70001B68202213400ED0A023FB181B682022B4
:103B8000134008D07B685B6E002B04D07B685B6EB3
:103B90007A68100098477B6880229B5894217A1895
:103BA00013607B681B689B6840221340402B04D045
:103BB0007B181B682822134047D07B68180000F050
:103BC0008FFD7B681B689B6840221340402B37D1D8
:103BD000EFF310833B663B6E90203A18136001238D
:103BE0007B667B6E83F31088C0467B681B689A688F
:103BF0007B681B6840218A439A603B181B68BB6640
:103C0000BB6E83F31088C0467B681B6F002B12D0FD
:103C10007B681B6F144A5A637B681B6F1800FDF7A3
:103C2000CFFC031E1AD07B681B6F5A6B7B681B6F1F
:103C30001800904712E07B68180000F08DF90DE045
:103C40007B68180000F088F908E07B68180000F035
:103C500083F97B6880220021995067E1C04665E1C5
:103C60000F08000020010004A54700087B681B6EB8
:103C7000012B00D031E1A423FB181B681022134054
:103C800000D12AE1A023FB181B681022134000D1A9
:103C900023E17B681B6810221A627B681B689B68A3
:103CA00040221340402B00D09BE07B681B6F1B68B9
:103CB0005A687E217B181A807B181B88002B00D144
:103CC00036E17B6858229B5A7A1812889A4200D3B0
:103CD0002EE17B687A185A2112885A527B681B6F32
:103CE0009B69202B6ED0EFF310833B633B6BBB676C
:103CF00001237B637B6B83F31088C0467B681B6862
:103D00001A687B681B688E490A401A60BB6FBB63E8
:103D1000BB6B83F31088C046EFF31083FB63FB6B30
:103D20007B6701233B643B6C83F31088C0467B6850
:103D30001B689A687B681B6801218A439A607B6FC5
:103D40007B647B6C83F31088C046EFF31083BB6405
:103D5000BB6C3B670123FB64FB6C83F31088C0469C
:103D60007B681B689A687B681B6840218A439A605D
:103D70003B6F3B653B6D83F31088C0467B68202218
:103D8000DA677B6800221A66EFF310837B657B6D30
:103D9000FB660123BB65BB6D83F31088C0467B685F
:103DA0001B681A687B681B6810218A431A60FB6EC7
:103DB000FB65FB6D83F31088C0467B681B6F1800A2
:103DC000FDF7C6FB7B6858229A5A7B685A215B5ADA
:103DD0009BB2D31A9AB27B681100180000F0C4F8A5
:103DE000A6E07B685822995A7B685A229B5A9AB25D
:103DF0008E203B188A1A1A807B685A229B5A9BB2E3
:103E0000002B00D196E03B181B88002B00D191E0DD
:103E1000EFF31083FB60FB6888243A1913600123D9
:103E20003B613B6983F31088C0467B681B681A6856
:103E30007B681B6843490A401A603B191B687B6119
:103E40007B6983F31088C046EFF31083BB61BB69C5
:103E500084243A1913600123FB61FB6983F3108802
:103E6000C0467B681B689A687B681B6801218A438F
:103E70009A603B191B683B623B6A83F31088C0461B
:103E80007B682022DA677B6800221A667B68002242
:103E90005A66EFF310837B627B6A80243A191360C1
:103EA0000123BB62BB6A83F31088C0467B681B6832
:103EB0001A687B681B6810218A431A603B191B68CB
:103EC000FB62FB6A83F31088C0463B181A887B6844
:103ED0001100180000F048F82CE0A423FB181B6820
:103EE000802213400FD0A023FB181B6880221340B0
:103EF00009D07B689B6E002B1ED07B689B6E7A6816
:103F00001000984718E0A423FB181B6840221340B8
:103F100013D0A023FB181B68402213400DD07B68F0
:103F2000180000F056FC08E0C04606E0C04604E079
:103F3000C04602E0C04600E0C046BD462BB090BD82
:103F4000FFFEFFFFDFFEFFFF80B582B000AF7860AD
:103F5000C046BD4602B080BD80B582B000AF78607B
:103F6000C046BD4602B080BD80B582B000AF78606B
:103F70000A00BB1C1A80C046BD4602B080BD0000CE
:103F800080B588B000AF78601E23FB1800221A703D
:103F90007B689A687B681B691A437B685B691A4374
:103FA0007B68DB6913437B617B681B681B688D4AF8
:103FB000134019007B681B687A690A431A607B68A2
:103FC0001B685B68884A134019007B68DA687B6865
:103FD0001B680A435A607B689B697B617B681B6A2C
:103FE0007A6913437B617B681B689B687F4A134037
:103FF00019007B681B687A690A439A607B681B68B2
:104000007B4A934227D17B4B1B6B03221340032B2C
:104010000DD01BD8022B14D018D8002B02D0012BA6
:104020000AD013E01F23FB1800221A7021E01F237F
:10403000FB1802221A701CE01F23FB1804221A70BE
:1040400017E01F23FB1808221A7012E01F23FB1829
:1040500010221A700DE07B681B68674A934204D1F6
:104060001F23FB1800221A7003E01F23FB181022E5
:104070001A707B68DA6980231B029A425DD11F2384
:10408000FB181B78082B15D018DC042B0DD015DC81
:10409000002B02D0022B05D010E0FEF7B7F9030089
:1040A000BB6112E0554BBB610FE0FEF73FF9030027
:1040B000BB610AE080231B02BB6106E00023BB61F9
:1040C0001E23FB1801221A70C046BB69002B00D1C9
:1040D0007BE0BB695A007B685B685B08D2187B6831
:1040E0005B6819001000FCF70FF803009BB23B61FE
:1040F0003B690F2B1CD93A6980235B029A4217D285
:104100003B699AB20E203B180F218A431A803B6903
:104110005B089BB20722134099B23B183A181288E9
:104120000A431A807B681B683A181288DA604CE0F0
:104130001E23FB1801221A7047E01F23FB181B786F
:10414000082B15D018DC042B0DD015DC002B02D069
:10415000022B05D010E0FEF759F90300BB6112E015
:10416000264BBB610FE0FEF7E1F80300BB610AE0FC
:1041700080231B02BB6106E00023BB611E23FB18EA
:1041800001221A70C046BB69002B1ED07B685B6899
:104190005A08BB69D2187B685B6819001000FBF7EE
:1041A000B3FF03009BB23B613B690F2B09D93A690E
:1041B00080235B029A4204D27B681B683A69DA600A
:1041C00003E01E23FB1801221A707B6800225A6646
:1041D0007B6800229A661E23FB181B781800BD46D8
:1041E00008B080BDF369FFEFFFCFFFFFFFF4FFFFD3
:1041F00000380140001002400044004000127A00E4
:1042000080B582B000AF78607B685B6A01221340A2
:104210000BD07B681B685B684A4A134019007B68B7
:104220009A6A7B681B680A435A607B685B6A022251
:1042300013400BD07B681B685B68434A134019002E
:104240007B68DA6A7B681B680A435A607B685B6A32
:10425000042213400BD07B681B685B683B4A134009
:1042600019007B681A6B7B681B680A435A607B687D
:104270005B6A082213400BD07B681B685B68344A7A
:10428000134019007B685A6B7B681B680A435A60AD
:104290007B685B6A102213400BD07B681B689B68AD
:1042A0002C4A134019007B689A6B7B681B680A4391
:1042B0009A607B685B6A202213400BD07B681B6886
:1042C0009B68254A134019007B68DA6B7B681B6882
:1042D0000A439A607B685B6A402213401DD07B686A
:1042E0001B685B681D4A134019007B681A6C7B6869
:1042F0001B680A435A607B681A6C80235B039A42EE
:104300000BD17B681B685B68154A134019007B68FA
:104310005A6C7B681B680A435A607B685B6A802220
:1043200013400BD07B681B685B680E4A1340190072
:104330007B689A6C7B681B680A435A60C046BD461E
:1043400002B080BDFFFFFDFFFFFFFEFFFFFFFBFF91
:10435000FF7FFFFFFFEFFFFFFFDFFFFFFFFFEFFF2D
:10436000FFFF9FFFFFFFF7FF80B586B002AF7860C9
:104370007B68802200219950FCF796FF0300FB60C8
:104380007B681B681B6808221340082B0CD1FB6854
:10439000802291037868174A0092002200F02CF8DE
:1043A000031E01D0032321E07B681B681B680422E5
:1043B0001340042B0CD1FB688022D10378680D4A8E
:1043C0000092002200F018F8031E01D003230DE034
:1043D0007B6820229A677B682022DA677B6800224C
:1043E0001A667B6874220021995400231800BD4688
:1043F00004B080BDFFFFFF0180B594B000AFF8604E
:10440000B9603B60FB1D1A70A3E0BB6D013300D1A6
:104410009FE0FCF749FF02003B68D31ABA6D9A424D
:1044200002D3BB6D002B3DD1EFF31083BB62BB6A9F
:104430007B640123FB62FB6A83F31088C046FB6840
:104440001B681A68FB681B684C490A401A607B6C41
:104450003B633B6B83F31088C046EFF310837B63B1
:104460007B6B3B640123BB63BB6B83F31088C0464B
:10447000FB681B689A68FB681B6801218A439A6085
:104480003B6CFB63FB6B83F31088C046FB68202208
:104490009A67FB682022DA67FB687422002199542E
:1044A000032367E0FB681B681B680422134050D09D
:1044B000FB681B68DA6980231B011A4080231B01FB
:1044C0009A4246D1FB681B68802212011A62EFF300
:1044D00010833B613B69FB6401237B617B6983F350
:1044E0001088C046FB681B681A68FB681B68234974
:1044F0000A401A60FB6CBB61BB6983F31088C0463D
:10450000EFF31083FB61FB69BB6401233B623B6AF1
:1045100083F31088C046FB681B689A68FB681B68B9
:1045200001218A439A60BB6C7B627B6A83F31088AB
:10453000C046FB6820229A67FB682022DA67FB6886
:10454000802220219950FB68742200219954032372
:1045500010E0FB681B68DB69BA681340BA68D31ABD
:104560005A425341DBB21A00FB1D1B789A4200D11C
:104570004BE700231800BD4614B080BD5FFEFFFF6F
:1045800080B58CB000AFF860B960BB1D1A80FB68C5
:10459000BA685A65FB68BA1D582112885A52FB68DE
:1045A000BA1D5A2112885A52FB6800225A66FB68CB
:1045B0009A6880235B019A420DD1FB681B69002B2E
:1045C00004D1FB685C22434999522EE0FB685C22CF
:1045D000FF21995229E0FB689B68002B0DD1FB68F5
:1045E0001B69002B04D1FB685C22FF2199521CE05F
:1045F000FB685C227F21995217E0FB689A68802350
:104600005B059A420DD1FB681B69002B04D1FB6846
:104610005C227F21995208E0FB685C223F2199527D
:1046200003E0FB685C2200219952FB688022002194
:104630009950FB682222DA67EFF31083FB61FB6974
:10464000FB6201233B623B6A83F31088C046FB6830
:104650001B689A68FB681B6801210A439A60FB6A21
:104660007B627B6A83F31088C046FB689A6880236C
:104670005B019A4207D1FB681B69002B03D1FB68E1
:10468000154A5A6602E0FB68144A5A66FB687422AF
:1046900000219954EFF310833B613B69BB62012316
:1046A0007B617B6983F31088C046FB681B681A68CE
:1046B000FB681B68902149000A431A60BB6ABB6112
:1046C000BB6983F31088C04600231800BD460CB0B8
:1046D00080BDC046FF01000091490008294800083C
:1046E00080B58EB000AF7860EFF310837B617B699B
:1046F0007B630123BB61BB6983F31088C0467B6881
:104700001B681A687B681B6825490A401A607B6B26
:10471000FB61FB6983F31088C046EFF310833B62B3
:104720003B6A3B6301237B627B6A83F31088C0464C
:104730007B681B689A687B681B6801218A439A60C2
:104740003B6BBB62BB6A83F31088C0467B681B6E01
:10475000012B18D1EFF31083BB60BB68FB62012310
:10476000FB60FB6883F31088C0467B681B681A688F
:104770007B681B6810218A431A60FB6A3B613B69B6
:1047800083F31088C0467B682022DA677B680022AA
:104790001A667B6800225A66C046BD460EB080BDD0
:1047A000DFFEFFFF80B584B000AF78607B685B6A96
:1047B000FB60FB685A2200219952FB6852220021BB
:1047C0009952FB681800FFF7C7FBC046BD4604B00E
:1047D00080BD80B586B000AF7860EFF31083BB601A
:1047E000BB687B610123FB60FB6883F31088C046D4
:1047F0007B681B681A687B681B6840218A431A60C3
:104800007B693B613B6983F31088C0467B6820224B
:104810009A677B6800229A667B681800FFF794FB12
:10482000C046BD4606B080BD80B590B000AF786090
:104830003E203B187A685C21525A1A807B68DB6FF5
:10484000222B00D095E07B681A683C217B18928C63
:104850001A807B181B88DAB23B181B88D9B27B6898
:104860005B6D0A40D2B21A707B685B6D5A1C7B6824
:104870005A657B685A229B5A9BB2013B99B27B686E
:104880005A2299527B685A229B5A9BB2002B78D1AC
:10489000EFF31083BB61BB69BB630123FB61FB6961
:1048A00083F31088C0467B681B681A687B681B68A6
:1048B00036490A401A60BB6B3B623B6A83F310883F
:1048C000C046EFF310837B627B6A7B630123BB628C
:1048D000BB6A83F31088C0467B681B689A687B6854
:1048E0001B6801218A439A607B6BFB62FB6A83F33E
:1048F0001088C0467B682022DA677B6800225A66EF
:104900007B681B6E012B2FD17B6800221A66EFF3A8
:104910001083FB60FB683B6301233B613B6983F3CE
:104920001088C0467B681B681A687B681B6810216A
:104930008A431A603B6B7B617B6983F31088C046B6
:104940007B681B68DB6910221340102B03D17B6846
:104950001B6810221A627B6858229A5A7B681100E1
:104960001800FFF701FB0CE07B681800FCF72CF83F
:1049700007E07B681B689A697B681B6808210A430B
:104980009A61C046BD4610B080BDC046DFFEFFFF45
:1049900080B590B000AF78603E203B187A685C210B
:1049A000525A1A807B68DB6F222B00D095E07B681F
:1049B0001A683C217B18928C1A807B685B6DBB6304
:1049C0007B183A181B88128813409AB2BB6B1A8066
:1049D0007B685B6D9A1C7B685A657B685A229B5A80
:1049E0009BB2013B99B27B685A2299527B685A224A
:1049F0009B5A9BB2002B78D1EFF310837B617B69CC
:104A00007B630123BB61BB6983F31088C0467B686D
:104A10001B681A687B681B6836490A401A607B6B02
:104A2000FB61FB6983F31088C046EFF310833B62A0
:104A30003B6A3B6301237B627B6A83F31088C04639
:104A40007B681B689A687B681B6801218A439A60AF
:104A50003B6BBB62BB6A83F31088C0467B68202235
:104A6000DA677B6800225A667B681B6E012B2FD1A8
:104A70007B6800221A66EFF31083BB60BB68FB62A1
:104A80000123FB60FB6883F31088C0467B681B68CA
:104A90001A687B681B6810218A431A60FB6A3B61B5
:104AA0003B6983F31088C0467B681B68DB69102272
:104AB0001340102B03D17B681B6810221A627B689D
:104AC00058229A5A7B6811001800FFF74DFA0CE043
:104AD0007B681800FBF778FF07E07B681B689A6922
:104AE0007B681B6808210A439A61C046BD4610B026
:104AF00080BDC046DFFEFFFF03008218934200D155
:104B0000704719700133F9E770B500260C4C0D4D54
:104B1000641BA410A64209D1002600F019F80A4C23
:104B20000A4D641BA410A64205D170BDB300EB581A
:104B300098470136EEE7B300EB5898470136F2E7A5
:104B4000A04B0008A04B0008A44B0008A04B000895
:104B5000F8B5C046F8BC08BC9E467047F8B5C046DC
:084B6000F8BC08BC9E4670473A
:104B680002030405060708090A0B0C0D0E0F1010A6
:104B78000102030405060708090A0B0C0D0E0F10A5
:104B880000000000000000000102030406070809F5
:084B980000000000010203040B
:044BA000E900000820
:044BA400C100000844
:104BA800A606FB044705ED05A606E9077707A6064E
:104BB800ED05E008E9077707E907A606A606FB045E
:104BC8004705ED05A606FB04FB047004FB04470536
:104BD800ED054705FB0400007701A600A600A60026
:104BE80077017701A600A600A600A600A600A600E9
:104BF800770177017701A600A600A6007701770163
:104C0800A600A600A600A600A600A600F4010100C2
:0C4C180000127A000400000001000000FF
:04000005080011716D
:00000001FF
