:020000040800F2
:1000000000180020D9140008E90D0008EF0D0008C1
:1000100000000000000000000000000000000000E0
:10002000000000000000000000000000F50D0008C6
:100030000000000000000000FF0D0008090E00088D
:10004000591500080000000059150008591500084E
:1000500059150008170E0008591500085915000811
:10006000000000005915000859150008290E000865
:10007000591500084D0E0008591500080000000031
:10008000650E000800000000000000007D0E000862
:1000900000000000591500085915000859150008FE
:1000A0000000000059150008000000005915000864
:1000B000950E00080000000000000000591500081F
:1000C00010B5064C2378002B07D1054B002B02D02E
:1000D000044800E000BF0123237010BDA0000020F1
:1000E0000000000030590008044B10B5002B03D06D
:1000F0000349044800E000BF10BDC04600000000F6
:10010000A4000020305900080023C25C0133002AFB
:10011000FBD1581E7047000003B4714649084000E7
:100120004900095E49008E4403BC70470022430821
:100130008B4274D303098B425FD3030A8B4244D3AF
:10014000030B8B4228D3030C8B420DD3FF220902F1
:1001500012BA030C8B4202D31212090265D0030BB0
:100160008B4219D300E0090AC30B8B4201D3CB03A6
:10017000C01A5241830B8B4201D38B03C01A5241E8
:10018000430B8B4201D34B03C01A5241030B8B42EA
:1001900001D30B03C01A5241C30A8B4201D3CB02D5
:1001A000C01A5241830A8B4201D38B02C01A5241BA
:1001B000430A8B4201D34B02C01A5241030A8B42BD
:1001C00001D30B02C01A5241CDD2C3098B4201D3D5
:1001D000CB01C01A524183098B4201D38B01C01A53
:1001E000524143098B4201D34B01C01A52410309CA
:1001F0008B4201D30B01C01A5241C3088B4201D379
:10020000CB00C01A524183088B4201D38B00C01A25
:10021000524143088B4201D34B00C01A5241411A4C
:1002200000D20146524110467047FFE701B5002059
:1002300000F006F802BDC0460029F7D076E7704707
:100240007047C04680B582B000AF0C4B5A690B4B6B
:1002500001210A435A61094B5B69012213407B600B
:100260007B68002200210B2001F0ACFA0B2001F08A
:10027000BEFAC046BD4602B080BDC0460010024076
:1002800090B589B000AF0C243B19180014231A0054
:10029000002104F0B1FE2D4B5A692C4B8021C9037B
:1002A0000A435A61294B5A698023DB031340BB6020
:1002B000BB68264B5A69254B802189020A435A6143
:1002C000224B5A6980239B0213407B607B689023FA
:1002D000DB0500222221180001F049FE3B19012212
:1002E0001A603B19882252035A603B1902229A6015
:1002F0003A199023DB051100180001F0ABFC3B1903
:1003000022221A603B1901225A603B1900229A608E
:100310003B190022DA603A199023DB05110018001E
:1003200001F098FC3B1910221A603B1900225A6018
:100330003B1902229A603A199023DB05110018003C
:1003400001F088FCC046BD4609B090BD00100240D7
:1003500080B500AF184B1B78002B0FD0174B002136
:10036000180002F0F7FC9023DB05002202211800A0
:1003700001F0FDFD104B00221A701AE00E4B012215
:100380001A700F4BEF229A620D4B0E4ADA620C4B39
:10039000DB6A5A080A4B013A5A63084B00211800DD
:1003A00002F032FC9023DB0501220221180001F04B
:1003B000DEFDC046BD4680BD1D0100206C01002051
:1003C000000400408713000090B587B000AF0823F9
:1003D000FB182B4A03CA03C33B002A4A03CA03C3C0
:1003E000294B9B6A172B02D0274B17229A620023B6
:1003F0007B613CE0254B0021180002F005FC08233E
:10040000FB187A695200D35A5A1E1F4BDA621E4BF0
:10041000DB6A5A081C4B013A5A63FB235B003B61C1
:100420001AE0194BDB6A5C08174BDB6A3A6911006A
:100430001800FFF77BFE03001A00134BA21A5A6341
:100440003B007A695200D35ADB189BB2180000F0C7
:1004500035FC3B69013B3B613B69022BE1DC0B4B0B
:100460000021180002F076FC7B6901337B617B6917
:10047000032BBFD9C046C046BD4607B090BDC0469D
:100480008859000890590008000400406C010020C1
:1004900090B583B000AF2C4B9B6A172B02D02A4B30
:1004A00017229A6200237B6045E0284B0021180048
:1004B00002F0AAFB264B7A685200D35A5A1E224BEE
:1004C000DA62214BDB6A224A796849008A5A013A8A
:1004D000934206D01E4B7A685200D35A5A1E1A4BCA
:1004E000DA62FB235B003B601AE0174BDB6A5C08B7
:1004F000154BDB6A3A6811001800FFF717FE03007E
:100500001A00114BA21A5A63124B7A685200D35A3E
:10051000DB189BB2180000F0D1FB3B68013B3B604D
:100520003B68022BE1DC094B0021180002F012FCB1
:100530007B6801337B607B68042BB6D9C046C0461C
:10054000BD4603B090BDC046000400406C010020D1
:100550002C0000203800002080B500AF00F0FEFF26
:1005600096235B00180001F05DF800F093F8FFF7A8
:1005700087FEFFF767FE00F087FD00F0D3FE00F076
:10058000D1FC00F0E1FD00F0CDF8394B180002F08D
:10059000E9F99023DB051021180001F0CBFC0300E2
:1005A000012B07D19023DB0500222021180001F048
:1005B000DEFC58E09023DB0501222021180001F029
:1005C000D6FC642001F02EF8FFF7FEFEFA239B0014
:1005D000180001F027F8274B180002F027FA2649E7
:1005E000264B1422180004F056FC254B1B681A6891
:1005F000234B1B6804218A431A60224B00221A7085
:10060000FFF7A6FE642001F00DF82CE01E4B1A88BF
:10061000E123DB009A420ED21749184B142218002E
:1006200004F039FC164B1B681A68154B1B68042133
:100630008A431A6017E0144B1A88E123DB009A42C0
:1006400011D3124B0021180002F084FBFFF720FFAA
:10065000074B180002F0C4F99023DB05002220218B
:10066000180001F084FC0A4B1B78002BCED0FAE76F
:1006700024010020B4010020C0000020FC01002063
:10068000C40200201D010020BE0000206C010020DB
:100690001E01002090B591B000AF10243B19180046
:1006A00030231A00002104F0A7FC3B00180010239F
:1006B0001A00002104F0A0FC21007B1801221A601E
:1006C0007B1801225A607B1802221A627B18802252
:1006D00052025A627B18802252039A627B180022CF
:1006E000DA627B18180001F07BFC031E01D000F0D9
:1006F00051FB3B0007221A603B0002225A603B007C
:1007000000229A603B000022DA603B0001211800C1
:1007100001F084FF031E01D000F03CFBC046BD4643
:1007200011B090BD80B500AF00220121052001F07D
:1007300049F8052001F05BF800220221102001F0A9
:1007400041F8102001F053F8C046BD4680BD0000BE
:1007500080B582B000AF78607B681B681F4A934207
:1007600038D19023DB051021180001F0E3FB0300D2
:100770001A001B4B1A701A4B1B78012B0FD19023B8
:10078000DB0500222021180001F0F1FB154B1800B9
:1007900002F026F9144B0021180002F0DBFA134B8B
:1007A0001B8801339AB2114B1A80104B1B88092BFE
:1007B00008D90F4B1B8801339AB20D4B1A800B4B93
:1007C00000221A800A4B1B880A4A934202D1084B26
:1007D00000221A80C046BD4602B080BD0020004005
:1007E0001E010020240100206C010020BC0000201C
:1007F000BE000020FFFF000090B583B000AF78601E
:100800000A00BB1C1A807B681B68D44A934200D044
:1008100032E2D34BD34A13CA13C303CA03C3D14B27
:1008200014220021180004F0E7FBCF4B1A68CC4BD0
:100830001100180004F0E8FB031E26D0CB4B1A6809
:10084000C74B1100180004F0DFFB031E07D09023F4
:10085000DB0501220221180001F089FB06E090234C
:10086000DB0500220221180001F081FBBC4B1800BF
:10087000FFF74AFC0300DAB2BD4B1A70B84ABD4B11
:100880001100180000F052FADCE1BB4B1A68B44BBF
:100890001100180004F0B8FB031E28D0B74B00214C
:1008A000180002F057FAB64BEF229A62B44BB54AE1
:1008B000DA62B34BDB6A01335A08B14B013A5A632F
:1008C000AE4B0021180002F09FF9AF4B01221A70C5
:1008D000A34B1800FFF718FC0300DAB2A44B1A7000
:1008E0009F4AA44B1100180000F020FAAAE1A74B80
:1008F0001A689B4B1100180004F086FB031E28D0D9
:100900009E4B0021180002F025FA9D4BEF229A62BF
:100910009B4B9C4ADA629A4BDB6A01339A08984BEC
:10092000013A5A63954B0021180002F06DF9964B7D
:1009300002221A708A4B1800FFF7E6FB0300DAB2B6
:100940008B4B1A70864A8B4B1100180000F0EEF9A1
:1009500078E18F4B1A68824B1100180004F054FBA9
:10096000031E2DD0854B0021180002F0F3F9844BB3
:10097000EF229A62824B834ADA62814BDB6A01334F
:1009800005211800FFF7D2FB03001A007C4B013A47
:100990005A637A4B0021180002F036F97A4B032291
:1009A0001A706F4B1800FFF7AFFB0300DAB2704B01
:1009B0001A706B4A6F4B1100180000F0B7F941E153
:1009C000744B1A68664B1100180004F01DFB031EDF
:1009D0002DD06A4B0021180002F0BCF9684BEF22C1
:1009E0009A62674B674ADA62654BDB6A01330A2118
:1009F0001800FFF79BFB03001A00614B013A5A6392
:100A00005E4B0021180002F0FFF85F4B04221A70C1
:100A1000534B1800FFF778FB0300DAB2544B1A70FF
:100A20004F4A544B1100180000F080F90AE15A4B6C
:100A30001A684B4B1100180004F0E6FA031E28D088
:100A40004E4B0021180002F085F94D4BEF229A62BF
:100A50004B4B524ADA624A4BDB6A01335A08484B25
:100A6000013A5A63454B0021180002F0CDF8464B7D
:100A700005221A703A4B1800FFF746FB0300DAB262
:100A80003B4B1A70364A3B4B1100180000F04EF9F0
:100A9000D8E0434B1A68324B1100180004F0B4FA46
:100AA000031E28D0354B0021180002F053F9344BB7
:100AB000EF229A62324B3B4ADA62314BDB6A0133F6
:100AC0005A082F4B013A5A632C4B0021180002F0B0
:100AD0009BF82D4B06221A70214B1800FFF714FBD0
:100AE0000300DAB2224B1A701D4A224B1100180083
:100AF00000F01CF9A6E02C4B1A68194B11001800E5
:100B000004F082FA031E53D01C4B0021180002F09F
:100B100021F91B4BEF229A62194B244ADA62184BD7
:100B2000DB6A01335A08164B013A5A63134B002112
:100B3000180002F069F8144B07221A70084B1800CD
:100B4000FFF7E2FA0300DAB2094B1A70044A094BC4
:100B50001100180000F0EAF874E0C04600440040BC
:100B600008010020C00000202000002024000020F8
:100B70001C01002098590008000000206C01002092
:100B8000000400408713000028000020040000201B
:100B9000080000200C000020100000201941000077
:100BA000140000201F4E000018000020A761000064
:100BB000334B1A68334B1100180004F025FA031E5A
:100BC00031D0314A3149324B180004F0D3F9314B5E
:100BD00032221A702E4A304B1100180000F0A6F88D
:100BE0002E4B1B881A002E49294B180004F0C2F91D
:100BF000284B32221A70264A274B1100180000F0A9
:100C000095F8284B1B781A002749214B180004F04F
:100C1000B1F9204B32221A701D4A1F4B11001800E7
:100C200000F084F80EE0214A194B1100180004F07E
:100C3000A1F9184B32221A70154A174B11001800EF
:100C400000F074F80F4B14220021180004F0D4F9BE
:100C5000174B04220021180004F0CEF91449154B5B
:100C60001422180004F017F9134B1B681A68124B72
:100C70001B6804218A431A60C046BD4603B090BD7C
:100C80001C000020080100209C590008A4590008FD
:100C9000D40000201C01002098590008BE0000204C
:100CA000AC59000828000020B8590008C4590008B1
:100CB000C0000020FC010020C402002080B582B0EA
:100CC00000AF0200BB1D1A80084B1B6800225A624D
:100CD000C046064B1B685A6ABB1D1B889A42F8D354
:100CE000C046C046BD4602B080BDC04624010020BB
:100CF00080B582B000AF0200BB1D1A80BB1D1B88EF
:100D0000012B0DD1084B0021180002F023F8FFF74A
:100D1000BFFB9023DB0500222021180001F027F9FA
:100D2000C046BD4602B080BD6C0100200FB480B546
:100D300082B000AFC046144B9B6F202BFBD1142315
:100D4000FB187B607A683969104B180004F048F989
:100D50000D4B9B6F202B10D10D4B1B789AB20B497A
:100D600009480A2302F0B2FF084B32220021180082
:100D700004F042F9064B00221A70C046BD4602B08C
:100D800080BC08BC04B01847FC010020D40000203F
:100D90001C01002080B500AF72B6C046FEE700001F
:100DA00080B582B000AF0F4B9A690E4B01210A4308
:100DB0009A610C4B9B69012213407B607B68094B55
:100DC000DA69084B802149050A43DA61054BDA6983
:100DD00080235B0513403B603B68C046BD4602B0C4
:100DE00080BDC0460010024080B500AFFEE780B570
:100DF00000AFFEE780B500AFC046BD4680BD80B500
:100E000000AFC046BD4680BD80B500AF00F0EEFB30
:100E1000C046BD4680BD80B500AF012001F0C4F8DA
:100E2000C046BD4680BD000080B500AF054B180030
:100E300000F025FE044B180000F021FEC046BD4620
:100E400080BDC04680020020C402002080B500AFF3
:100E5000034B180001F0F4FFC046BD4680BDC046FC
:100E60002401002080B500AF034B180001F0E8FF1B
:100E7000C046BD4680BDC0466C01002080B500AFB5
:100E8000034B180001F0DCFFC046BD4680BDC046E4
:100E9000B401002080B500AF034B180002F0C0FF82
:100EA000C046BD4680BDC046FC01002080B586B06E
:100EB00000AF7860144A154BD31A7B617B693B61A4
:100EC000134B1B68002B02D1114B124A1A60104BB6
:100ED0001A687B68D3183A699A4207D204F0AAF8D4
:100EE00003000C221A6001235B4209E0084B1B68D7
:100EF000FB60074B1A687B68D218054B1A60FB68C9
:100F00001800BD4606B080BD001800200004000097
:100F1000200100205804002080B500AFC046BD4627
:100F200080BD000080B596B000AF4823FB181800C4
:100F300010231A00002104F05FF84023FB1818006A
:100F400008231A00002104F057F82423FB18180086
:100F50001C231A00002104F04FF83B1D1800202329
:100F60001A00002104F048F8444B454A1A60434BEC
:100F70002F225A60414B00229A60404B414ADA606E
:100F80003E4B00221A613D4B00225A613B4B00222E
:100F90009A613A4B180001F095FC031E01D0FFF74F
:100FA000F9FE48217B18802252011A607A18334BCF
:100FB0001100180002F078F9031E01D0FFF7EAFED5
:100FC0002E4B180001F078FD031E01D0FFF7E2FE62
:100FD00040217B1800221A607B1800225A607A1880
:100FE000264B1100180002F05DFD031E01D0FFF733
:100FF000D1FE24217B1800221A607B1800225A603F
:101000007B1800229A607B180022DA607B1800228D
:101010001A617B1800225A617B1800229A617918A4
:10102000164B0422180002F021F8031E01D0FFF72E
:10103000B1FE3B1D00221A603B1D00225A603B1D81
:1010400000229A603B1D0022DA603B1D00221A61DB
:101050003B1D802292015A613B1D0022DA613A1D3C
:10106000064B1100180002F06FFD031E01D0FFF7C0
:1010700091FEC046BD4616B080BDC046240100208A
:10108000002C0140FFFF000080B58AB000AF202394
:10109000FB18180008231A00002103F0ADFF3B1DC8
:1010A00018001C231A00002103F0A6FF244B254A38
:1010B0001A60234B17225A60214B00229A60204B62
:1010C0003122DA601E4B00221A611D4B00229A6108
:1010D0001B4B180001F048FD031E01D0FFF75AFE1C
:1010E00020217B1800221A607B1800225A607A188F
:1010F000134B1100180002F0D5FC031E01D0FFF7BE
:1011000049FE3B1D60221A603B1D18225A603B1DA0
:1011100000229A603B1D00221A61391D084B0022F3
:10112000180001F0FBFF031E01D0FFF733FE044B54
:10113000180000F0B9F8C046BD460AB080BDC046F0
:101140006C0100200004004080B588B000AF3B1D5A
:1011500018001C231A00002103F04EFF1D4B1E4AED
:101160001A601C4B1D4A5A601A4B00229A60194B98
:101170006322DA60174B00221A61164B00229A6133
:10118000144B180001F09EFB031E01D0FFF702FE76
:10119000104B180001F090FC031E01D0FFF7FAFD80
:1011A0003B1D00221A603B1D00225A603B1D00229D
:1011B0009A603B1D00221A61391D064B002218005F
:1011C00001F054FF031E01D0FFF7E4FDC046BD4609
:1011D00008B080BDB4010020002000407FBB0000AB
:1011E00080B584B000AF78607B681B681C4A93426E
:1011F00016D11C4B9A691B4B802109010A439A6145
:10120000184B9A6980231B011340FB60FB68002286
:1012100000210D2000F0D6FA0D2000F0E8FA1AE0C7
:101220007B681B68104A934215D10E4BDA690D4B4F
:10123000802149000A43DA610A4BDA6980235B00A6
:101240001340BB60BB6800220021132000F0BAFAF3
:10125000132000F0CCFAC046BD4604B080BDC046A5
:10126000002C0140001002400020004080B584B0F6
:1012700000AF78607B681B68094A93420BD1094B29
:10128000DA69084B02210A43DA61064BDB69022264
:101290001340FB60FB68C046BD4604B080BDC0463D
:1012A000000400400010024090B589B000AF7860A3
:1012B0000C243B19180014231A00002103F09CFE93
:1012C0007B681B68154A934224D1154B5A69144B0D
:1012D000802189020A435A61114B5A6980239B027B
:1012E0001340BB60BB6821007B1840221A607B184A
:1012F00002225A607B1800229A607B180022DA6072
:101300007B1801221A617A189023DB05110018005E
:1013100000F0A0FCC046BD4609B090BD00040040EE
:101320000010024080B500AF144B154A1A60134BF1
:10133000962292015A60114B00229A600F4B0022B4
:10134000DA600E4B00221A610C4B0C225A610B4BD7
:1013500000229A61094B0022DA61084B00221A62CE
:10136000064B00225A62054B180002F05BFC031E7C
:1013700001D0FFF70FFDC046BD4680BDFC01002037
:101380000044004090B58BB000AF786014243B1946
:10139000180014231A00002103F02EFE7B681B683E
:1013A000474A934200D086E0464BDA69454B80219C
:1013B00089020A43DA61434BDA6980239B021340B6
:1013C0003B613B693F4B5A693E4B802189020A438E
:1013D0005A613C4B5A6980239B021340FB60FB68B7
:1013E00021007B180C221A607B1802225A607B189D
:1013F00000229A607B180322DA607B1801221A61AE
:101400007A189023DB051100180000F023FC2E4B06
:101410002E4A1A602C4B10225A602B4B00229A60E5
:10142000294B8022DA60284B00221A61264B0022C9
:101430005A61254B00229A61234B0022DA61224B2C
:10144000180000F0F1F9031E01D0FFF7A3FC7B6840
:101450001D4ADA661C4B7A685A621D4B1D4A1A6097
:101460001B4B00225A601A4B00229A60184B8022B4
:10147000DA60174B00221A61154B00225A61144B97
:1014800000229A61124B0022DA61114B180000F021
:10149000CBF9031E01D0FFF77DFC7B680C4A1A676D
:1014A0000B4B7A685A62002203211C2000F08AF953
:1014B0001C2000F09CF9C046BD460BB090BDC04654
:1014C000004400400010024080020020440002401E
:1014D000C4020020580002401348854613480168A2
:1014E000090E134A914205D112481349016013486D
:1014F0001349016013481449144A002302E0D458E8
:10150000C4500433C4188C42F9D3114A114C00233F
:1015100001E013600432A242FBD3FFF7FDFC03F0AD
:101520008FFDFFF719F8FEE7001800200400000007
:101530001F000000181002400100000000000140E0
:101540000000000000000020A00000204C5A00080D
:10155000A000002054040020FEE7000080B500AF8A
:10156000074B1A68064B10210A431A60002000F04E
:1015700009F8FFF715FC00231800BD4680BDC046E2
:101580000020024090B583B000AF7860144B1C6817
:10159000144B1B781900FA239800FEF7C7FD0300CF
:1015A00019002000FEF7C2FD0300180000F02FF91B
:1015B000031E01D001230FE07B68032B0BD8796851
:1015C00001235B420022180000F0FCF8064B7A6809
:1015D0001A60002300E001231800BD4603B090BD4F
:1015E000440000204C0000204800002080B500AFDF
:1015F000054B1B781A00054B1B68D218034B1A6069
:10160000C046BD4680BDC0464C00002008030020F7
:1016100080B500AF024B1B681800BD4680BDC046B8
:101620000803002080B584B000AF7860FFF7F0FFBA
:101630000300BB607B68FB60FB68013305D00A4B8D
:101640001B781A00FB689B18FB60C046FFF7E0FFA1
:101650000200BB68D31AFA689A42F7D8C046C0465F
:10166000BD4604B080BDC0464C00002080B582B0AD
:1016700000AF0200FB1D1A70FB1D1B787F2B09D8E1
:10168000FB1D1B781A001F231A40044B01219140B7
:101690000A001A60C046BD4602B080BD00E100E00D
:1016A00090B583B000AF02003960FB1D1A70FB1DBE
:1016B0001B787F2B28D82F4AFB1D1B785BB29B0819
:1016C000C0339B009B58FA1D1278110003220A4078
:1016D000D200FF2191400A00D2431A4011003B681A
:1016E0009B01FF221A40FB1D1B78180003230340B7
:1016F000DB009A401F48FB1D1B785BB29B080A4326
:10170000C0339B001A5031E01B4AFB1D1B781900A7
:101710000F230B40083B9B0806339B00D318043370
:101720001B68FA1D1278110003220A40D200FF2123
:1017300091400A00D2431A4011003B689B01FF22EE
:101740001A40FB1D1B78180003230340DB009A405E
:101750000948FB1D1B781C000F232340083B9B08F6
:101760000A4306339B00C31804331A60C046BD46C3
:1017700003B090BD00E100E000ED00E080B582B074
:1017800000AF78607B685A1E80235B049A4201D3C5
:10179000012310E00A4B7A68013A5A6001235B4248
:1017A00003211800FFF77CFF054B00229A60044BD1
:1017B00007221A6000231800BD4602B080BDC04653
:1017C00010E000E080B584B000AFB9607A600F210E
:1017D0007B18021C1A70BA687B181B785BB2110068
:1017E0001800FFF75DFFC046BD4604B080BD80B560
:1017F00082B000AF0200FB1D1A70FB1D1B785BB2AC
:101800001800FFF733FFC046BD4602B080BD80B56B
:1018100082B000AF78607B681800FFF7AFFF03006D
:101820001800BD4602B080BD80B584B000AF7860BE
:101830000023FB607B68002B01D1012336E07B682D
:101840002122022199547B681B681B68FB60FB689E
:10185000184A1340FB607B685A687B689B681A4390
:101860007B68DB681A437B681B691A437B685B698A
:101870001A437B689B691A437B68DB691343FA68E8
:101880001343FB607B681B68FA681A607B6818006A
:1018900000F0C4F97B6800229A637B682122012151
:1018A00099547B6820220021995400231800BD46DA
:1018B00004B080BD0FC0FFFF80B586B000AFF860F8
:1018C000B9607A603B601723FB1800221A70FB682E
:1018D00020229B5C012B01D102234FE0FB682022D8
:1018E00001219954FB6821229B5CDBB2012B3AD188
:1018F000FB68212202219954FB6800229A63FB684D
:101900001B681A68FB681B6801218A431A603B68E0
:101910007A68B968F86800F054F9FB68DB6A002B54
:1019200008D0FB681B681A68FB681B680E210A4315
:101930001A600FE0FB681B681A68FB681B680A21C5
:101940000A431A60FB681B681A68FB681B6804215D
:101950008A431A60FB681B681A68FB681B680121D0
:101960000A431A6007E0FB682022002199541723DC
:10197000FB1802221A701723FB181B781800BD46AB
:1019800006B080BD80B582B000AF78607B68212250
:101990009B5CDBB2022B08D07B6804229A637B68D5
:1019A000202200219954012320E07B681B681A68DB
:1019B0007B681B680E218A431A607B681B681A6863
:1019C0007B681B6801218A431A607B681A6C7B68FC
:1019D000DB6B012191400A005A607B6821220121C2
:1019E00099547B6820220021995400231800BD4699
:1019F00002B080BD80B584B000AF78600F217B1845
:101A000000221A707B6821229B5CDBB2022B06D07D
:101A10007B6804229A637B1801221A7028E07B6895
:101A20001B681A687B681B680E218A431A607B68F2
:101A30001B681A687B681B6801218A431A607B68EF
:101A40001A6C7B68DB6B012191400A005A607B684D
:101A50002122012199547B682022002199547B681E
:101A60005B6B002B04D07B685B6B7A681000984737
:101A70000F23FB181B781800BD4604B080BD80B54D
:101A800084B000AF78607B68DB6B1B68FB607B68B1
:101A90001B681B68BB607B681B6C04229A401300A8
:101AA000FA68134024D0BB680422134020D07B681E
:101AB0001B681B682022134007D17B681B681A68CB
:101AC0007B681B6804218A431A607B681A6C7B68F8
:101AD000DB6B042191400A005A607B68DB6A002BB3
:101AE00000D16AE07B68DB6A7A681000984764E09E
:101AF0007B681B6C02229A401300FA6813402BD0BB
:101B0000BB680222134027D07B681B681B68202219
:101B100013400BD17B681B681A687B681B680A211D
:101B20008A431A607B682122012199547B681A6CD0
:101B30007B68DB6B022191400A005A607B6820229F
:101B4000002199547B689B6A002B36D07B689B6A86
:101B50007A681000984730E07B681B6C08229A4036
:101B60001300FA68134028D0BB680822134024D021
:101B70007B681B681A687B681B680E218A431A60A1
:101B80007B681A6C7B68DB6B012191400A005A600C
:101B90007B6801229A637B682122012199547B682A
:101BA0002022002199547B681B6B002B05D07B6899
:101BB0001B6B7A6810009847FFE7C046BD4604B02B
:101BC00080BD80B584B000AFF860B9607A603B60DA
:101BD000FB681A6CFB68DB6B012191400A005A60BC
:101BE000FB681B683A685A60FB685B68102B08D179
:101BF000FB681B687A689A60FB681B68BA68DA60E1
:101C000007E0FB681B68BA689A60FB681B687A6823
:101C1000DA60C046BD4604B080BD000080B582B029
:101C200000AF78607B681B68084A944663441421BF
:101C30001800FEF77BFA03009A007B681A647B6841
:101C4000034ADA63C046BD4602B080BDF8FFFDBF5F
:101C50000000024080B586B000AF78603960002394
:101C60007B614FE13B681B6801217A6991400A0062
:101C70001340FB60FB68002B00D140E13B685B68D0
:101C800003221340012B05D03B685B6803221340FD
:101C9000022B30D17B689B683B617B695B00032230
:101CA0009A401300DA433B6913403B613B68DA68B2
:101CB0007B695B009A4013003A6913433B617B6880
:101CC0003A699A607B685B683B6101227B699A4054
:101CD0001300DA433B6913403B613B685B681B09B7
:101CE00001221A407B699A4013003A6913433B6111
:101CF0007B683A695A603B685B6803221340032B98
:101D000017D07B68DB683B617B695B0003229A40EC
:101D10001300DA433B6913403B613B689A687B6977
:101D20005B009A4013003A6913433B617B683A6950
:101D3000DA603B685B6803221340022B23D17B6986
:101D4000DA087B6808329200D3583B617B6907222E
:101D500013409B000F229A401300DA433B69134063
:101D60003B613B681A697B6907210B409B009A40E5
:101D700013003A6913433B617B69DA087B680832D8
:101D800092003969D1507B681B683B617B695B00BD
:101D900003229A401300DA433B6913403B613B68DE
:101DA0005B6803221A407B695B009A4013003A6922
:101DB00013433B617B683A691A603B685A68C023E9
:101DC0009B02134000D19AE0544B9A69534B012176
:101DD0000A439A61514B9B6901221340BB60BB6867
:101DE0004F4A7B699B0802339B009B583B617B6990
:101DF000032213409B000F229A401300DA433B69F1
:101E000013403B617A689023DB059A4213D07B68CC
:101E1000444A93420DD07B68434A934207D07B6883
:101E2000424A934201D1032306E0052304E0022342
:101E300002E0012300E000237A6903210A409200B6
:101E400093403A6913433B6135497B699B080233F0
:101E50009B003A695A50364B1B683B61FB68DA437A
:101E60003B6913403B613B685A6880235B02134027
:101E700003D03A69FB6813433B612D4B3A691A6002
:101E80002B4B5B683B61FB68DA433B6913403B616A
:101E90003B685A6880239B02134003D03A69FB6871
:101EA00013433B61224B3A695A60214B9B683B616B
:101EB000FB68DA433B6913403B613B685A68802307
:101EC0005B03134003D03A69FB6813433B61184B33
:101ED0003A699A60164BDB683B61FB68DA433B6901
:101EE00013403B613B685A6880239B03134003D037
:101EF0003A69FB6813433B610D4B3A69DA607B69D1
:101F000001337B613B681A687B69DA40131E00D09D
:101F1000A8E6C046C046BD4606B080BD00100240DF
:101F2000000001400004004800080048000C004880
:101F30000004014080B584B000AF78600A00BB1C8B
:101F40001A807B681B69BA1C1288134004D00F23C7
:101F5000FB1801221A7003E00F23FB1800221A70ED
:101F60000F23FB181B781800BD4604B080BD80B558
:101F700082B000AF786008001100BB1C021C1A8000
:101F80007B1C0A1C1A707B1C1B78002B04D0BB1C0A
:101F90001A887B689A6103E0BB1C1A887B689A6286
:101FA000C046BD4602B080BD80B582B000AF020021
:101FB000BB1D1A80094B5B69BA1D1288134008D0FB
:101FC000064BBA1D12885A61BB1D1B881800FEF70C
:101FD0008FFEC046BD4602B080BDC0460004014031
:101FE00080B588B000AF78607B68002B01D10123F9
:101FF00005E37B681B680122134000D18DE0C54BCF
:102000005B680C221340042B0ED0C24B5B680C2281
:102010001340082B16D1BF4B5A68C0235B021A40ED
:1020200080235B029A420DD1BA4B1A6880239B022F
:10203000134000D170E07B685B68002B00D06BE040
:102040000123DCE27B685B68012B07D1B14B1A6886
:10205000B04B802149020A431A602FE07B685B681D
:10206000002B0CD1AB4B1A68AA4BAB490A401A6043
:10207000A84B1A68A74BA9490A401A601EE07B6862
:102080005B68052B0ED1A34B1A68A24B8021C902B5
:102090000A431A609F4B1A689E4B802149020A43EB
:1020A0001A600BE09B4B1A689A4B9B490A401A60D6
:1020B000984B1A68974B99490A401A607B685B688D
:1020C000002B14D0FFF7A4FA0300BB6108E0FFF770
:1020D0009FFA0200BB69D31A642B01D903238EE255
:1020E0008C4B1A6880239B021340F0D015E0FFF759
:1020F0008FFA0300BB6108E0FFF78AFA0200BB69B0
:10210000D31A642B01D9032379E2824B1A68802306
:102110009B021340F0D100E0C0467B681B6802229E
:10212000134000D16CE07B4B5B680C2213400ED057
:10213000784B5B680C221340082B1FD1754B5A68F3
:10214000C0235B021A4080231B029A4216D1714BB6
:102150001B680222134005D07B68DB68012B01D08D
:1021600001234CE26B4B1B68F822934319007B68F8
:102170001B69DA00674B0A431A6041E07B68DB6841
:10218000002B24D0634B1A68624B01210A431A606A
:10219000FFF73EFA0300BB6108E0FFF739FA0200DF
:1021A000BB69D31A022B01D9032328E2594B1B68C0
:1021B00002221340F1D0574B1B68F82293431900B9
:1021C0007B681B69DA00534B0A431A6018E0514BD5
:1021D0001A68504B01218A431A60FFF719FA03006D
:1021E000BB6108E0FFF714FA0200BB69D31A022BA7
:1021F00001D9032303E2474B1B6802221340F1D1AC
:102200007B681B680822134036D07B68DB69002B93
:1022100019D0404B5A6A3F4B01210A435A62FFF7DB
:10222000F7F90300BB6108E0FFF7F2F90200BB69B0
:10223000D31A022B01D90323E1E1364B5B6A022258
:102240001340F1D018E0334B5A6A324B01218A43D4
:102250005A62FFF7DDF90300BB6108E0FFF7D8F928
:102260000200BB69D31A022B01D90323C7E1294B12
:102270005B6A02221340F1D17B681B680422134081
:1022800000D1B5E01F203B1800221A70214BDA69FB
:1022900080235B05134010D11E4BDA691D4B802152
:1022A00049050A43DA611B4BDA6980235B05134059
:1022B000FB60FB683B1801221A70194B1A688023D7
:1022C0005B0013401AD1164B1A68154B8021490048
:1022D0000A431A60FFF79CF90300BB6108E0FFF7AF
:1022E00097F90200BB69D31A642B01D9032386E155
:1022F0000B4B1A6880235B001340F0D07B689B680F
:10230000012B0FD1034B1A6A024B01210A431A62B7
:1023100036E0C04600100240FFFFFEFFFFFFFBFF5C
:10232000007000407B689B68002B0CD1B64B1A6A8A
:10233000B54B01218A431A62B34B1A6AB24B04218E
:102340008A431A621CE07B689B68052B0CD1AE4B5C
:102350001A6AAD4B04210A431A62AB4B1A6AAA4BA4
:1023600001210A431A620BE0A74B1A6AA64B01210E
:102370008A431A62A44B1A6AA34B04218A431A6245
:102380007B689B68002B14D0FFF742F90300BB6108
:1023900009E0FFF73DF90200BB69D31A9B4A93425B
:1023A00001D903232BE1984B1B6A02221340F0D082
:1023B00013E0FFF72DF90300BB6109E0FFF728F9EF
:1023C0000200BB69D31A914A934201D9032316E153
:1023D0008D4B1B6A02221340F0D11F23FB181B7880
:1023E000012B05D1884BDA69874B89490A40DA61AC
:1023F0007B681B681022134063D07B685B69012BEC
:102400002AD1814B5A6B804B04210A435A637E4B7D
:102410005A6B7D4B01210A435A63FFF7F9F8030019
:10242000BB6108E0FFF7F4F80200BB69D31A022B86
:1024300001D90323E3E0744B5B6B02221340F1D01C
:10244000714B5B6BF822934319007B689B69DA0040
:102450006D4B0A435A6334E07B685B69053311D1E5
:10246000694B5A6B684B04218A435A63664B5B6B1A
:10247000F822934319007B689B69DA00624B0A4398
:102480005A631EE0604B5A6B5F4B04210A435A6348
:102490005D4B5A6B5C4B01218A435A63FFF7B8F8D6
:1024A0000300BB6108E0FFF7B3F80200BB69D31A71
:1024B000022B01D90323A2E0534B5B6B0222134092
:1024C000F1D17B681B6A002B00D197E04E4B5B6813
:1024D0000C221340082B00D16BE07B681B6A022B97
:1024E0004CD1494B1A68484B4A490A401A60FFF7D9
:1024F0008FF80300BB6108E0FFF78AF80200BB69B0
:10250000D31A022B01D9032379E03F4B1A688023A9
:102510009B041340F0D13C4BDB6A0F22934319001C
:102520007B68DA6A384B0A43DA62374B5B683A4AAF
:10253000134019007B689A6A7B685B6A1A43324BC6
:102540000A435A60304B1A682F4B802149040A43D2
:102550001A60FFF75DF80300BB6108E0FFF758F869
:102560000200BB69D31A022B01D9032347E0264B93
:102570001A6880239B041340F0D03FE0224B1A6876
:10258000214B24490A401A60FFF742F80300BB615F
:1025900008E0FFF73DF80200BB69D31A022B01D90E
:1025A00003232CE0184B1A6880239B041340F0D1BE
:1025B00024E07B681B6A012B01D101231FE0124B31
:1025C0005B687B61104BDB6A3B617A69C0235B020D
:1025D0001A407B685B6A9A420ED13B690F221A400F
:1025E0007B68DB6A9A4207D17A69F0239B031A4021
:1025F0007B689B6A9A4201D0012300E00023180007
:10260000BD4608B080BDC0460010024088130000DF
:10261000FFFFFFEFFFFFFFFEFF7FC2FF80B584B02B
:1026200000AF786039607B68002B01D10123B3E0F3
:102630005B4B1B68012213403A689A4211D9584BF0
:102640001B68012293431900554B3A680A431A60EC
:10265000534B1B68012213403A689A4201D0012370
:102660009AE07B681B680222134015D07B681B68C8
:102670000422134006D04B4B5A684A4BE021C90054
:102680000A435A60474B5B68F022934319007B680A
:102690009A68444B0A435A607B681B6801221340C6
:1026A00040D07B685B68012B07D13E4B1A688023C2
:1026B0009B02134014D101236EE07B685B68022B00
:1026C00007D1384B1A6880239B04134008D101239B
:1026D00062E0344B1B680222134001D101235BE00E
:1026E000304B5B680322934319007B685A682D4B7B
:1026F0000A435A60FEF78CFF0300FB6009E0FEF717
:1027000087FF0200FB68D31A274A934201D90323AB
:1027100042E0244B5B680C221A407B685B689B009C
:102720009A42ECD11E4B1B68012213403A689A4230
:1027300011D21B4B1B68012293431900184B3A68B6
:102740000A431A60164B1B68012213403A689A42EA
:1027500001D0012320E07B681B680422134009D0CC
:10276000104B5B68114A134019007B68DA680D4B07
:102770000A435A6000F020F801000A4B5B681B090D
:102780000F2213400A4AD35C0A00DA40094B1A6050
:102790000020FEF7F7FE00231800BD4604B080BD00
:1027A000002002400010024088130000FFF8FFFFE5
:1027B000F85900084400002090B58FB000AF1423F2
:1027C000FB182C4A13CA13C312681A603B1D2A4A0D
:1027D00013CA13C312681A600023FB620023BB6292
:1027E00000237B6300237B6200233B63234B5B68F6
:1027F000FB62FB6A0C221340042B02D0082B03D08F
:102800002FE01F4B3B632FE0FB6A9B0C0F22134012
:102810001422BA18D35C7B62184BDB6A0F22134078
:102820003A1DD35CBB62FA6AC0235B021A40802364
:102830005B029A4209D1B96A1148FDF777FC03009F
:102840001A007B6A53437B6308E0B96A0C48FDF7C2
:102850006DFC03001A007B6A53437B637B6B3B6315
:1028600002E0074B3B63C0463B6B1800BD460FB010
:1028700090BDC046D8590008E85900080010024031
:1028800000127A0080B500AF024B1B681800BD46ED
:1028900080BDC0464400002080B500AFFFF7F2FFC6
:1028A0000100064B5B681B0A07221340044AD35CF5
:1028B000D9400B001800BD4680BDC0460010024044
:1028C000085A000880B582B000AF78607B68002BA2
:1028D00001D1012342E07B683D229B5CDBB2002BEF
:1028E00007D17B683C22002199547B681800FEF7D1
:1028F00077FC7B683D22022199547B681A687B68CB
:1029000004331900100000F0C3FD7B68462201214A
:1029100099547B683E22012199547B683F22012112
:1029200099547B684022012199547B6841220121FE
:1029300099547B684222012199547B6843220121EA
:1029400099547B684422012199547B6845220121D6
:1029500099547B683D220121995400231800BD46FB
:1029600002B080BD80B584B000AF78607B683D2246
:102970009B5CDBB2012B01D0012328E07B683D2268
:10298000022199547B681B68134A934204D07B68E8
:102990001B68124A934211D17B681B689B6807220F
:1029A0001340FB60FB68062B10D07B681B681A681D
:1029B0007B681B6801210A431A6007E07B681B687B
:1029C0001A687B681B6801210A431A6000231800FB
:1029D000BD4604B080BDC046002C0140000400404C
:1029E00080B582B000AF78607B681B681B6A0D4AB7
:1029F00013400DD17B681B681B6A0B4A134007D13B
:102A00007B681B681A687B681B6801218A431A600F
:102A10007B683D220121995400231800BD4602B075
:102A200080BDC046111100004404000080B584B090
:102A300000AF78607B683D229B5CDBB2012B01D04C
:102A4000012330E07B683D22022199547B681B689A
:102A5000DA687B681B6801210A43DA607B681B68BF
:102A6000134A934204D07B681B68124A934211D1E7
:102A70007B681B689B6807221340FB60FB68062B82
:102A800010D07B681B681A687B681B6801210A43A9
:102A90001A6007E07B681B681A687B681B68012165
:102AA0000A431A6000231800BD4604B080BDC0462A
:102AB000002C01400004004080B582B000AF786077
:102AC0007B68002B01D1012342E07B683D229B5CA7
:102AD000DBB2002B07D17B683C22002199547B6834
:102AE000180000F039F87B683D22022199547B6878
:102AF0001A687B6804331900100000F0C9FC7B6879
:102B00004622012199547B683E22012199547B6819
:102B10003F22012199547B684022012199547B680E
:102B20004122012199547B684222012199547B68FA
:102B30004322012199547B684422012199547B68E6
:102B40004522012199547B683D220121995400239B
:102B50001800BD4602B080BD80B582B000AF78607D
:102B6000C046BD4602B080BD80B582B000AF78607F
:102B70007B68002B01D1012342E07B683D229B5CF6
:102B8000DBB2002B07D17B683C22002199547B6883
:102B90001800FEF76BFB7B683D22022199547B688D
:102BA0001A687B6804331900100000F071FC7B6820
:102BB0004622012199547B683E22012199547B6869
:102BC0003F22012199547B684022012199547B685E
:102BD0004122012199547B684222012199547B684A
:102BE0004322012199547B684422012199547B6836
:102BF0004522012199547B683D22012199540023EB
:102C00001800BD4602B080BD80B584B000AF7860CA
:102C100039603B68002B08D17B683E229B5CDBB2AD
:102C2000013B5A1E9341DBB21FE03B68042B08D1E5
:102C30007B683F229B5CDBB2013B5A1E9341DBB2B7
:102C400013E03B68082B08D17B6840229B5CDBB219
:102C5000013B5A1E9341DBB207E07B6841229B5C3B
:102C6000DBB2013B5A1E9341DBB2002B01D00123A2
:102C700064E03B68002B04D17B683E22022199541A
:102C800013E03B68042B04D17B683F220221995456
:102C90000BE03B68082B04D17B6840220221995449
:102CA00003E07B684122022199547B681B683968E4
:102CB0000122180000F0D2FE7B681B68214A934273
:102CC00009D07B681B68204A934204D07B681B684C
:102CD0001E4A934201D1012300E00023002B08D0BB
:102CE0007B681B685A6C7B681B68802109020A4359
:102CF0005A647B681B68134A934204D07B681B6844
:102D0000134A934211D17B681B689B6807221340CA
:102D1000FB60FB68062B10D07B681B681A687B6819
:102D20001B6801210A431A6007E07B681B681A6868
:102D30007B681B6801210A431A6000231800BD4606
:102D400004B080BD002C0140004401400048014017
:102D50000004004080B582B000AF786039607B68C5
:102D60001B6839680022180000F078FE7B681B6839
:102D70002D4A934209D07B681B682C4A934204D0A9
:102D80007B681B682A4A934201D1012300E000239B
:102D9000002B13D07B681B681B6A264A13400DD199
:102DA0007B681B681B6A244A134007D17B681B6839
:102DB0005A6C7B681B6821490A405A647B681B680F
:102DC0001B6A1C4A13400DD17B681B681B6A1A4A98
:102DD000134007D17B681B681A687B681B68012158
:102DE0008A431A603B68002B04D17B683E22012194
:102DF000995413E03B68042B04D17B683F220121E6
:102E000099540BE03B68082B04D17B6840220121D8
:102E1000995403E07B684122012199540023180052
:102E2000BD4602B080BDC046002C014000440140B8
:102E3000004801401111000044040000FF7FFFFF23
:102E400080B582B000AF78607B681B681B69022286
:102E50001340022B24D17B681B68DB6802221340DD
:102E6000022B1DD17B681B68032252421A617B68CA
:102E700001221A777B681B689B690322134004D0E8
:102E80007B68180000F0ECFA07E07B68180000F09F
:102E9000DFFA7B68180000F0EBFA7B6800221A77F3
:102EA0007B681B681B6904221340042B25D17B68B7
:102EB0001B68DB6804221340042B1ED17B681B684F
:102EC000052252421A617B6802221A777B681B68CE
:102ED0009A69C0239B00134004D07B68180000F05F
:102EE000BFFA07E07B68180000F0B2FA7B681800B0
:102EF00000F0BEFA7B6800221A777B681B681B69AA
:102F000008221340082B24D17B681B68DB68082249
:102F10001340082B1DD17B681B68092252421A619D
:102F20007B6804221A777B681B68DB6903221340E5
:102F300004D07B68180000F093FA07E07B68180063
:102F400000F086FA7B68180000F092FA7B68002295
:102F50001A777B681B681B6910221340102B25D140
:102F60007B681B68DB6810221340102B1ED17B6826
:102F70001B68112252421A617B6808221A777B680B
:102F80001B68DA69C0239B00134004D07B681800DB
:102F900000F066FA07E07B68180000F059FA7B68D9
:102FA000180000F065FA7B6800221A777B681B68BE
:102FB0001B6901221340012B0FD17B681B68DB6862
:102FC00001221340012B08D17B681B680222524268
:102FD0001A617B681800FDF7BBFB7B681B681B69E7
:102FE00080221340802B0FD17B681B68DB68802216
:102FF0001340802B08D17B681B68812252421A61E2
:103000007B68180000F006FE7B681B681B69402285
:103010001340402B0FD17B681B68DB6840221340B4
:10302000402B08D17B681B68412252421A617B68A1
:10303000180000F025FA7B681B681B6920221340EA
:10304000202B0FD17B681B68DB6820221340202BCC
:1030500008D17B681B68212252421A617B681800E4
:1030600000F0D0FDC046BD4602B080BD80B586B040
:1030700000AFF860B9607A601723FB1800221A705D
:10308000FB683C229B5C012B01D1022342E0FB68E0
:103090003C22012199547B680C2B27D07B680C2B98
:1030A0002CD87B68082B19D07B68082B26D87B6826
:1030B000002B03D07B68042B08D01FE0FB681B6843
:1030C000BA681100180000F04FFA1CE0FB681B689A
:1030D000BA681100180000F0C5FA14E0FB681B681C
:1030E000BA681100180000F03BFB0CE0FB681B689D
:1030F000BA681100180000F0B3FB04E01723FB18B6
:1031000001221A70C046FB683C2200219954172303
:10311000FB181B781800BD4606B080BD80B586B090
:1031200000AFF860B9607A601723FB1800221A70AC
:10313000FB683C229B5C012B01D10223ADE0FB68C4
:103140003C22012199547B680C2B00D176E07B68EE
:103150000C2B00D995E07B68082B4ED07B68082BA0
:1031600000D98EE07B68002B03D07B68042B21D034
:1031700087E0FB681B68BA681100180000F0F4F9DA
:10318000FB681B689A69FB681B6808210A439A61FF
:10319000FB681B689A69FB681B6804218A439A6173
:1031A000FB681B689969BB681A69FB681B680A435E
:1031B0009A616BE0FB681B68BA681100180000F0A8
:1031C00051FAFB681B689A69FB681B68802109013A
:1031D0000A439A61FB681B689A69FB681B6831495E
:1031E0000A409A61FB681B689969BB681B691A02EF
:1031F000FB681B680A439A6148E0FB681B68BA6871
:103200001100180000F0ACFAFB681B68DA69FB6873
:103210001B6808210A43DA61FB681B68DA69FB68EE
:103220001B6804218A43DA61FB681B68D969BB68A3
:103230001A69FB681B680A43DA6127E0FB681B68B0
:10324000BA681100180000F00BFBFB681B68DA6914
:10325000FB681B68802109010A43DA61FB681B686F
:10326000DA69FB681B680F490A40DA61FB681B6872
:10327000D969BB681B691A02FB681B680A43DA61DB
:1032800004E01723FB1801221A70C046FB683C2299
:10329000002199541723FB181B781800BD4606B06F
:1032A00080BDC046FFFBFFFF80B584B000AF7860F3
:1032B00039600F23FB1800221A707B683C229B5C4C
:1032C000012B01D10223BCE07B683C2201219954EF
:1032D0007B683D22022199547B681B689B68BB6018
:1032E000BB6877229343BB60BB68584A1340BB60FE
:1032F0007B681B68BA689A603B681B6880229201F1
:10330000934240D080229201934200D988E08022EB
:103310005201934200D188E080225201934200D9A9
:103320007EE0702B18D000D97AE0602B4FD000D906
:1033300076E0502B3BD000D972E0402B57D000D91B
:103340006EE0302B63D06BD8202B60D068D8002B78
:103350005DD0102B5BD063E07B6818683B68996890
:103360003B685A683B68DB6800F058FB7B681B6869
:103370009B68BB60BB6877221343BB607B681B689C
:10338000BA689A6052E07B6818683B6899683B6845
:103390005A683B68DB6800F041FB7B681B689A68F1
:1033A0007B681B688021C9010A439A603EE07B6804
:1033B00018683B6859683B68DB681A0000F0B4FA8B
:1033C0007B681B685021180000F00EFB2EE07B6824
:1033D00018683B6859683B68DB681A0000F0D2FA4D
:1033E0007B681B686021180000F0FEFA1EE07B6815
:1033F00018683B6859683B68DB681A0000F094FA6B
:103400007B681B684021180000F0EEFA0EE07B6834
:103410001A683B681B681900100000F0E5FA05E027
:103420000F23FB1801221A7000E0C0467B683D2282
:10343000012199547B683C22002199540F23FB18E9
:103440001B781800BD4604B080BDC046FF00FFFFDA
:1034500080B582B000AF7860C046BD4602B080BD86
:1034600080B582B000AF7860C046BD4602B080BD76
:1034700080B582B000AF7860C046BD4602B080BD66
:1034800080B582B000AF7860C046BD4602B080BD56
:1034900080B584B000AF786039607B681B68FB60E2
:1034A0007B682B4A934203D07B682A4A934208D117
:1034B000FB6870229343FB603B685B68FA681343C8
:1034C000FB607B68224A93420FD07B68214A93427B
:1034D0000BD07B68204A934207D07B681F4A9342F7
:1034E00003D07B681E4A934208D1FB681D4A1340F3
:1034F000FB603B68DB68FA681343FB60FB68802273
:1035000093431A003B685B691343FB607B68FA686E
:103510001A603B689A687B68DA623B681A687B6865
:103520009A627B680A4A934207D07B680B4A9342AF
:1035300003D07B680A4A934203D13B681A697B68CF
:103540001A637B6801225A61C046BD4604B080BD43
:10355000002C0140000400400020004000440140D5
:1035600000480140FFFCFFFF80B586B000AF7860E7
:1035700039607B681B6A012293431A007B681A62D8
:103580007B681B6A7B617B685B683B617B689B69CE
:10359000FB60FB6870229343FB60FB68032293434C
:1035A000FB603B681B68FA681343FB607B6902227F
:1035B00093437B613B689B687A6913437B617B68BB
:1035C000234A934207D07B68224A934203D07B6808
:1035D000214A93420CD17B69082293437B613B686B
:1035E000DB687A6913437B617B69042293437B61C7
:1035F0007B68174A934207D07B68164A934203D0F0
:103600007B68154A934211D13B69144A13403B61D0
:103610003B69134A13403B613B685B693A6913435A
:103620003B613B689B693A6913433B617B683A693C
:103630005A607B68FA689A613B685A687B685A638B
:103640007B687A691A62C046BD4606B080BDC04636
:10365000002C01400044014000480140FFFEFFFFF4
:10366000FFFDFFFF80B586B000AF786039607B68F2
:103670001B6A102293431A007B681A627B681B6ADC
:103680007B617B685B683B617B689B69FB60FB6877
:103690002C4A1340FB60FB682B4A1340FB603B68DD
:1036A0001B681B02FA681343FB607B69202293436B
:1036B0007B613B689B681B017A6913437B617B6874
:1036C000224A93420DD17B69802293437B613B6800
:1036D000DB681B017A6913437B617B69402293435A
:1036E0007B617B68194A934207D07B68184A9342F2
:1036F00003D07B68174A934213D13B69164A1340A3
:103700003B613B69154A13403B613B685B699B0029
:103710003A6913433B613B689B699B003A691343D9
:103720003B617B683A695A607B68FA689A613B68DA
:103730005A687B689A637B687A691A62C046BD469C
:1037400006B080BDFF8FFFFFFFFCFFFF002C014094
:103750000044014000480140FFFBFFFFFFF7FFFF6F
:1037600080B586B000AF786039607B681B6A334AE9
:103770001A407B681A627B681B6A7B617B685B68A6
:103780003B617B68DB69FB60FB6870229343FB60F5
:10379000FB6803229343FB603B681B68FA68134392
:1037A000FB607B69264A13407B613B689B681B0278
:1037B0007A6913437B617B68224A93420DD17B690E
:1037C000214A13407B613B68DB681B027A69134323
:1037D0007B617B691D4A13407B617B68194A934278
:1037E00007D07B681A4A934203D07B68194A9342F8
:1037F00013D13B69184A13403B613B69174A134098
:103800003B613B685B691B013A6913433B613B6861
:103810009B691B013A6913433B617B683A695A60B3
:103820007B68FA68DA613B685A687B68DA637B68B0
:103830007A691A62C046BD4606B080BDFFFEFFFF32
:10384000FFFDFFFF002C0140FFF7FFFFFFFBFFFF25
:103850000044014000480140FFEFFFFFFFDFFFFF92
:1038600080B586B000AF786039607B681B6A264AF5
:103870001A407B681A627B681B6A3B617B685B68E5
:103880007B617B68DB69FB60FB68204A1340FB605F
:10389000FB681F4A1340FB603B681B681B02FA6809
:1038A0001343FB603B691B4A13403B613B689B68C9
:1038B0001B033A6913433B617B68174A934207D065
:1038C0007B68164A934203D07B68154A934209D11C
:1038D0007B69144A13407B613B685B699B017A6991
:1038E00013437B617B687A695A607B68FA68DA61A6
:1038F0003B685A687B681A647B683A691A62C046FA
:10390000BD4606B080BDC046FFEFFFFFFF8FFFFF43
:10391000FFFCFFFFFFDFFFFF002C014000440140E0
:1039200000480140FFBFFFFF80B586B000AFF860E0
:10393000B9607A60FB681B6A7B61FB681B6A0122C5
:1039400093431A00FB681A62FB689B693B613B6901
:10395000F02293433B617B681B013A6913433B614F
:103960007B690A2293437B617A69BB6813437B615D
:10397000FB683A699A61FB687A691A62C046BD467B
:1039800006B080BD80B586B000AFF860B9607A60DF
:10399000FB681B6A102293431A00FB681A62FB68DB
:1039A0009B697B61FB681B6A3B617B690D4A134025
:1039B0007B617B681B037A6913437B613B69A022AF
:1039C00093433B61BB681B013A6913433B61FB684E
:1039D0007A699A61FB683A691A62C046BD4606B0C8
:1039E00080BDC046FF0FFFFF80B584B000AF786098
:1039F00039607B689B68FB60FB6870229343FB60C7
:103A00003A68FB68134307221343FB607B68FA683C
:103A10009A60C046BD4604B080BD000080B586B047
:103A200000AFF860B9607A603B60FB689B687B61BF
:103A30007B69094A13407B613B681A027B681A4321
:103A4000BB6813437A6913437B61FB687A699A60A8
:103A5000C046BD4606B080BDFF00FFFF80B586B002
:103A600000AFF860B9607A60BB681F221340012282
:103A70009A4013007B61FB681B6A7A69D2431A4043
:103A8000FB681A62FB681A6ABB681F210B407968E1
:103A900099400B001A43FB681A62C046BD4606B047
:103AA00080BD000080B584B000AF786039607B686D
:103AB0003C229B5C012B01D102233CE07B683C2231
:103AC000012199547B683D22022199547B681B682F
:103AD0005B68FB607B681B689B68BB60FB6870224F
:103AE0009343FB603B681B68FA681343FB607B6889
:103AF0001B68FA685A607B681B68114A934204D0BD
:103B00007B681B680F4A93420CD1BB6880229343A9
:103B1000BB603B685B68BA681343BB607B681B682B
:103B2000BA689A607B683D22012199547B683C22E7
:103B30000021995400231800BD4604B080BDC04642
:103B4000002C01400004004080B584B000AF7860D4
:103B500039600023FB607B683C229B5C012B01D118
:103B600002233EE07B683C2201219954FB68FF223E
:103B700093431A003B68DB681343FB60FB681B4AF6
:103B80001A403B689B681343FB60FB68184A1A4065
:103B90003B685B681343FB60FB68164A1A403B684E
:103BA0001B681343FB60FB68134A1A403B681B69A0
:103BB0001343FB60FB68114A1A403B685B6913437F
:103BC000FB60FB680E4A1A403B68DB691343FB60ED
:103BD0007B681B68FA685A647B683C220021995410
:103BE00000231800BD4604B080BDC046FFFCFFFFA7
:103BF000FFFBFFFFFFF7FFFFFFEFFFFFFFDFFFFF11
:103C0000FFBFFFFF80B582B000AF7860C046BD4601
:103C100002B080BD80B582B000AF7860C046BD46BE
:103C200002B080BD80B582B000AF78607B68002BA9
:103C300001D1012344E07B689B6F002B07D17B6897
:103C40007422002199547B681800FDF79BFB7B6868
:103C500024229A677B681B681A687B681B680121AD
:103C60008A431A607B68180000F0BAFB0300012B3E
:103C700001D1012324E07B685B6A002B03D07B68C1
:103C8000180000F0EDFC7B681B685A687B681B68B5
:103C90000D490A405A607B681B689A687B681B68FC
:103CA00008218A439A607B681B681A687B681B68D6
:103CB00001210A431A607B68180000F085FD0300AB
:103CC0001800BD4602B080BDFFF7FFFF80B58AB087
:103CD00002AFF860B9603B60BB1D1A80FB689B6F48
:103CE000202B00D096E0BB68002B03D0BB1D1B88A7
:103CF000002B01D101238EE0FB689A6880235B01D1
:103D00009A4209D1FB681B69002B05D1BB680122CF
:103D1000134001D001237EE0FB6874229B5C012BE1
:103D200001D1022377E0FB68742201219954FB68DA
:103D3000802200219950FB6821229A67FDF768FCD8
:103D400003007B61FB68BA1D502112885A52FB6840
:103D5000BA1D522112885A52FB689A6880235B016F
:103D60009A4208D1FB681B69002B04D10023FB6138
:103D7000BB68BB6103E0BB68FB610023BB61FB6800
:103D80007422002199542DE07A69F8683B68009309
:103D900013000022802100F05FFD031E01D00323E9
:103DA00039E0FB69002B0BD1BB691A88FB681B68E3
:103DB000D205D20D92B21A85BB690233BB6108E00D
:103DC000FB691A78FB681B6892B21A85FB6901339C
:103DD000FB61FB6852229B5A9BB2013B99B2FB6884
:103DE00052229952FB6852229B5A9BB2002BCBD194
:103DF0007A69F8683B68009313000022402100F0C4
:103E00002BFD031E01D0032305E0FB6820229A67E7
:103E1000002300E002231800BD4608B080BD00006A
:103E200090B5ABB000AF78607B681B68DB69A422FB
:103E3000B9180B607B681B681B68A02039180B60E1
:103E40007B681B689B689C2179180B601100BB186C
:103E50001B68994A13409822BC182360BB181B6842
:103E6000002B14D17B181B68202213400FD03B1865
:103E70001B68202213400AD07B685B6E002B00D1A8
:103E80007EE27B685B6E7A681000984778E2982340
:103E9000FB181B68002B00D114E19C23FB181B6846
:103EA0000122134006D1A023FB181B68834A13404C
:103EB00000D107E1A423FB181B680122134012D094
:103EC000A023FB181A6880235B0013400BD07B688B
:103ED0001B6801221A627B6880229B5801221A43C8
:103EE0007B6880215A50A423FB181B6802221340D0
:103EF00011D09C23FB181B68012213400BD07B6858
:103F00001B6802221A627B6880229B5804221A4393
:103F10007B6880215A50A423FB181B68042213409D
:103F200011D09C23FB181B68012213400BD07B6827
:103F30001B6804221A627B6880229B5802221A4363
:103F40007B6880215A50A423FB181B680822134069
:103F500017D0A023FB181B682022134005D19C23F7
:103F6000FB181B68012213400BD07B681B680822DA
:103F70001A627B6880229B5808221A437B68802142
:103F80005A50A423FB181A6880231B01134013D036
:103F9000A023FB181A688023DB0413400CD07B6835
:103FA0001B68802212011A627B6880229B582022A3
:103FB0001A437B6880215A507B6880229B58002BD3
:103FC00000D1DFE1A423FB181B68202213400ED090
:103FD000A023FB181B682022134008D07B685B6E6F
:103FE000002B04D07B685B6E7A68100098477B6872
:103FF00080229B5894217A1813607B681B689B6809
:1040000040221340402B04D07B181B682822134009
:1040100047D07B68180000F0A9FD7B681B689B688F
:1040200040221340402B37D1EFF310833B663B6EA9
:1040300090203A18136001237B667B6E83F310880F
:10404000C0467B681B689A687B681B6840218A436E
:104050009A603B181B68BB66BB6E83F31088C04632
:104060007B681B6F002B12D07B681B6F144A5A634E
:104070007B681B6F1800FDF7BDFC031E1AD07B6820
:104080001B6F5A6B7B681B6F1800904712E07B68B0
:10409000180000F09DF90DE07B68180000F098F919
:1040A00008E07B68180000F093F97B68802200210B
:1040B000995067E1C04665E10F0800002001000447
:1040C000134E00087B681B6E012B00D031E1A42346
:1040D000FB181B681022134000D12AE1A023FB1813
:1040E0001B681022134000D123E17B681B6810225B
:1040F0001A627B681B689B6840221340402B00D0EB
:104100009BE07B681B6F1B685A687E217B181A80B6
:104110007B181B88002B00D136E17B6858229B5A04
:104120007A1812889A4200D32EE17B687A185A21B5
:1041300012885A527B681B6F9B69202B6ED0EFF35D
:1041400010833B633B6BBB6701237B637B6B83F318
:104150001088C0467B681B681A687B681B688E499C
:104160000A401A60BB6FBB63BB6B83F31088C04609
:10417000EFF31083FB63FB6B7B6701233B643B6CBA
:1041800083F31088C0467B681B689A687B681B684D
:1041900001218A439A607B6F7B647B6C83F3108878
:1041A000C046EFF31083BB64BB6C3B670123FB6429
:1041B000FB6C83F31088C0467B681B689A687B6839
:1041C0001B6840218A439A603B6F3B653B6D83F3DC
:1041D0001088C0467B682022DA677B6800221A6656
:1041E000EFF310837B657B6DFB660123BB65BB6DC5
:1041F00083F31088C0467B681B681A687B681B685D
:1042000010218A431A60FB6EFB65FB6D83F31088F7
:10421000C0467B681B6F1800FDF7B4FB7B68582213
:104220009A5A7B685A215B5A9BB2D31A9AB27B681E
:1042300011001800FCF7E0FAA6E07B685822995AB2
:104240007B685A229B5A9AB28E203B188A1A1A808F
:104250007B685A229B5A9BB2002B00D196E03B18F8
:104260001B88002B00D191E0EFF31083FB60FB680B
:1042700088243A19136001233B613B6983F310885A
:10428000C0467B681B681A687B681B6843490A4004
:104290001A603B191B687B617B6983F31088C046F9
:1042A000EFF31083BB61BB6984243A1913600123C7
:1042B000FB61FB6983F31088C0467B681B689A68C2
:1042C0007B681B6801218A439A603B191B683B622B
:1042D0003B6A83F31088C0467B682022DA677B68DC
:1042E00000221A667B6800225A66EFF310837B6215
:1042F0007B6A80243A1913600123BB62BB6A83F393
:104300001088C0467B681B681A687B681B68102190
:104310008A431A603B191B68FB62FB6A83F31088AF
:10432000C0463B181A887B6811001800FCF764FA35
:104330002CE0A423FB181B68802213400FD0A0237D
:10434000FB181B688022134009D07B689B6E002BF2
:104350001ED07B689B6E7A681000984718E0A423F3
:10436000FB181B684022134013D0A023FB181B68C6
:10437000402213400DD07B68180000F061FD08E07A
:10438000C04606E0C04604E0C04602E0C04600E089
:10439000C046BD462BB090BDFFFEFFFFDFFEFFFF16
:1043A00080B582B000AF7860C046BD4602B080BD27
:1043B00080B582B000AF7860C046BD4602B080BD17
:1043C00080B582B000AF7860C046BD4602B080BD07
:1043D00080B582B000AF7860C046BD4602B080BDF7
:1043E00080B588B000AF78601E23FB1800221A70D9
:1043F0007B689A687B681B691A437B685B691A4310
:104400007B68DB6913437B617B681B681B688D4A93
:10441000134019007B681B687A690A431A607B683D
:104420001B685B68884A134019007B68DA687B6800
:104430001B680A435A607B689B697B617B681B6AC7
:104440007A6913437B617B681B689B687F4A1340D2
:1044500019007B681B687A690A439A607B681B684D
:104460007B4A934227D17B4B1B6B03221340032BC8
:104470000DD01BD8022B14D018D8002B02D0012B42
:104480000AD013E01F23FB1800221A7021E01F231B
:10449000FB1802221A701CE01F23FB1804221A705A
:1044A00017E01F23FB1808221A7012E01F23FB18C5
:1044B00010221A700DE07B681B68674A934204D192
:1044C0001F23FB1800221A7003E01F23FB18102281
:1044D0001A707B68DA6980231B029A425DD11F2320
:1044E000FB181B78082B15D018DC042B0DD015DC1D
:1044F000002B02D0022B05D010E0FEF7CDF903000F
:10450000BB6112E0554BBB610FE0FEF755F90300AC
:10451000BB610AE080231B02BB6106E00023BB6194
:104520001E23FB1801221A70C046BB69002B00D164
:104530007BE0BB695A007B685B685B08D2187B68CC
:104540005B6819001000FBF7F1FD03009BB23B61B3
:104550003B690F2B1CD93A6980235B029A4217D220
:104560003B699AB20E203B180F218A431A803B699F
:104570005B089BB20722134099B23B183A18128885
:104580000A431A807B681B683A181288DA604CE08C
:104590001E23FB1801221A7047E01F23FB181B780B
:1045A000082B15D018DC042B0DD015DC002B02D005
:1045B000022B05D010E0FEF76FF90300BB6112E09B
:1045C000264BBB610FE0FEF7F7F80300BB610AE082
:1045D00080231B02BB6106E00023BB611E23FB1886
:1045E00001221A70C046BB69002B1ED07B685B6835
:1045F0005A08BB69D2187B685B6819001000FBF78A
:1046000095FD03009BB23B613B690F2B09D93A69C9
:1046100080235B029A4204D27B681B683A69DA60A5
:1046200003E01E23FB1801221A707B6800225A66E1
:104630007B6800229A661E23FB181B781800BD4673
:1046400008B080BDF369FFEFFFCFFFFFFFF4FFFF6E
:1046500000380140001002400044004000127A007F
:1046600080B582B000AF78607B685B6A012213403E
:104670000BD07B681B685B684A4A134019007B6853
:104680009A6A7B681B680A435A607B685B6A0222ED
:1046900013400BD07B681B685B68434A13401900CA
:1046A0007B68DA6A7B681B680A435A607B685B6ACE
:1046B000042213400BD07B681B685B683B4A1340A5
:1046C00019007B681A6B7B681B680A435A607B6819
:1046D0005B6A082213400BD07B681B685B68344A16
:1046E000134019007B685A6B7B681B680A435A6049
:1046F0007B685B6A102213400BD07B681B689B6849
:104700002C4A134019007B689A6B7B681B680A432C
:104710009A607B685B6A202213400BD07B681B6821
:104720009B68254A134019007B68DA6B7B681B681D
:104730000A439A607B685B6A402213401DD07B6805
:104740001B685B681D4A134019007B681A6C7B6804
:104750001B680A435A607B681A6C80235B039A4289
:104760000BD17B681B685B68154A134019007B6896
:104770005A6C7B681B680A435A607B685B6A8022BC
:1047800013400BD07B681B685B680E4A134019000E
:104790007B689A6C7B681B680A435A60C046BD46BA
:1047A00002B080BDFFFFFDFFFFFFFEFFFFFFFBFF2D
:1047B000FF7FFFFFFFEFFFFFFFDFFFFFFFFFEFFFC9
:1047C000FFFF9FFFFFFFF7FF80B586B002AF786065
:1047D0007B68802200219950FCF71AFF0300FB60E0
:1047E0007B681B681B6808221340082B0CD1FB68F0
:1047F000802291037868174A0092002200F02CF87A
:10480000031E01D0032321E07B681B681B68042280
:104810001340042B0CD1FB688022D10378680D4A29
:104820000092002200F018F8031E01D003230DE0CF
:104830007B6820229A677B682022DA677B680022E7
:104840001A667B6874220021995400231800BD4623
:1048500004B080BDFFFFFF0180B594B000AFF860E9
:10486000B9603B60FB1D1A70A3E0BB6D013300D142
:104870009FE0FCF7CDFE02003B68D31ABA6D9A4266
:1048800002D3BB6D002B3DD1EFF31083BB62BB6A3B
:104890007B640123FB62FB6A83F31088C046FB68DC
:1048A0001B681A68FB681B684C490A401A607B6CDD
:1048B0003B633B6B83F31088C046EFF310837B634D
:1048C0007B6B3B640123BB63BB6B83F31088C046E7
:1048D000FB681B689A68FB681B6801218A439A6021
:1048E0003B6CFB63FB6B83F31088C046FB682022A4
:1048F0009A67FB682022DA67FB68742200219954CA
:10490000032367E0FB681B681B680422134050D038
:10491000FB681B68DA6980231B011A4080231B0196
:104920009A4246D1FB681B68802212011A62EFF39B
:1049300010833B613B69FB6401237B617B6983F3EB
:104940001088C046FB681B681A68FB681B6823490F
:104950000A401A60FB6CBB61BB6983F31088C046D8
:10496000EFF31083FB61FB69BB6401233B623B6A8D
:1049700083F31088C046FB681B689A68FB681B6855
:1049800001218A439A60BB6C7B627B6A83F3108847
:10499000C046FB6820229A67FB682022DA67FB6822
:1049A000802220219950FB6874220021995403230E
:1049B00010E0FB681B68DB69BA681340BA68D31A59
:1049C0005A425341DBB21A00FB1D1B789A4200D1B8
:1049D0004BE700231800BD4614B080BD5FFEFFFF0B
:1049E00080B590B000AFF860B960BB1D1A80FB685D
:1049F000BA685A65FB68BA1D582112885A52FB687A
:104A0000802200219950FB682222DA67FB681B6F25
:104A1000002B2BD0FB681B6F3F4A9A62FB681B6F11
:104A20003E4ADA62FB681B6F3D4A1A63FB681B6FE4
:104A300000225A63FB68186FFB681B682433190057
:104A4000FB685B6D1A00BB1D1B88FCF735FF031E5E
:104A50000CD0FB68802210219950FB687422002141
:104A60009954FB682022DA67012350E0FB68742226
:104A700000219954EFF310833B613B69FB630123F1
:104A80007B617B6983F31088C046FB681B681A68EA
:104A9000FB681B68802149000A431A60FB6BBB61FD
:104AA000BB6983F31088C046EFF31083FB61FB6999
:104AB000BB6301233B623B6A83F31088C046FB68FB
:104AC0001B689A68FB681B6801210A439A60BB6BEC
:104AD0007B627B6A83F31088C046EFF31083BB626E
:104AE000BB6A7B630123FB62FB6A83F31088C046C9
:104AF000FB681B689A68FB681B6840210A439A6040
:104B00007B6B3B633B6B83F31088C046002318002C
:104B1000BD4610B080BDC046314C0008554D000860
:104B2000914D000880B586B000AF7860EFF3108338
:104B3000BB60BB687B610123FB60FB6883F310886B
:104B4000C0467B681B681A687B681B68C0218A4363
:104B50001A607B693B613B6983F31088C0467B68C0
:104B600020229A67C046BD4606B080BD80B58EB093
:104B700000AF7860EFF310837B617B697B63012377
:104B8000BB61BB6983F31088C0467B681B681A68E9
:104B90007B681B6825490A401A607B6BFB61FB69D7
:104BA00083F31088C046EFF310833B623B6A3B639C
:104BB00001237B627B6A83F31088C0467B681B6895
:104BC0009A687B681B6801218A439A603B6BBB62D1
:104BD000BB6A83F31088C0467B681B6E012B18D11B
:104BE000EFF31083BB60BB68FB620123FB60FB68D3
:104BF00083F31088C0467B681B681A687B681B6853
:104C000010218A431A60FB6A3B613B6983F3108879
:104C1000C0467B682022DA677B6800221A667B68C0
:104C200000225A66C046BD460EB080BDDFFEFFFFC3
:104C300080B594B000AF78607B685B6AFB647B688A
:104C40009B69202B6ED0FB6C5A2200219952EFF306
:104C50001083BB61BB69BB640123FB61FB6983F308
:104C60001088C046FB6C1B681A68FB6C1B683849CF
:104C70000A401A60BB6C3B623B6A83F31088C046F3
:104C8000EFF310837B627B6A7B640123BB62BB6AA8
:104C900083F31088C046FB6C1B689A68FB6C1B682A
:104CA00001218A439A607B6CFB62FB6A83F3108864
:104CB000C046EFF310833B633B6B3B6401237B6394
:104CC0007B6B83F31088C046FB6C1B689A68FB6C97
:104CD0001B6840218A439A603B6CBB63BB6B83F3C8
:104CE0001088C046FB6C2022DA67FB6C1B6E012B20
:104CF00018D1EFF31083FB60FB68FB6301233B617A
:104D00003B6983F31088C046FB6C1B681A68FB6C18
:104D10001B6810218A431A60FB6B7B617B6983F3FC
:104D20001088C046FB6C1B6E012B08D1FB6C58220F
:104D30009A5AFB6C11001800FBF75EFD03E0FB6C58
:104D40001800FFF735FBC046BD4614B080BDC04615
:104D5000FFFEFFFF80B584B000AF78607B685B6AC0
:104D6000FB60FB681B6E012B0AD1FB6858229B5A23
:104D70005B089AB2FB6811001800FBF73DFD03E0E9
:104D8000FB681800FFF71CFBC046BD4604B080BDA1
:104D900080B586B000AF78607B685B6A7B617B69B9
:104DA0009B6F3B617B69DB6FFB607B691B689B686A
:104DB00080221340802B0AD13B69212B07D17B69CC
:104DC0005222002199527B691800FFF7ABFE7B69E4
:104DD0001B689B6840221340402B0AD1FB68222BA2
:104DE00007D17B695A22002199527B691800FFF78D
:104DF000BDFE7B6980229B5810221A437B6980216B
:104E00005A507B691800FFF7E3FAC046BD4606B06A
:104E100080BD80B584B000AF78607B685B6AFB6062
:104E2000FB685A2200219952FB68522200219952B4
:104E3000FB681800FFF7CCFAC046BD4604B080BD41
:104E400080B586B000AF7860EFF31083BB60BB68BD
:104E50007B610123FB60FB6883F31088C0467B689D
:104E60001B681A687B681B6840218A431A607B694B
:104E70003B613B6983F31088C0467B6820229A67B8
:104E80007B6800229A667B681800FFF789FAC046A3
:104E9000BD4606B080BDB0B58AB000AFF860B9605D
:104EA000BB1D1A80FB68DB6F202B5ED1BB68002B1B
:104EB00003D0BB1D1B88002B01D1012356E0FB68EA
:104EC0009A6880235B019A4209D1FB681B69002B19
:104ED00005D1BB680122134001D0012346E0FB68E5
:104EE00074229B5C012B01D102233FE0FB687422FA
:104EF00001219954FB6801221A6627257C19BB1DE4
:104F00001A88B968FB681800FFF76AFD0300237070
:104F10007B191B78002B24D1FB681B6E012B1CD145
:104F2000FB681B6810221A62EFF310837B617B69B8
:104F30003B620123BB61BB6983F31088C046FB68F9
:104F40001B681A68FB681B6810210A431A603B6AD9
:104F5000FB61FB6983F3108803E02723FB18012220
:104F60001A702723FB181B7800E002231800BD46A7
:104F70000AB0B0BD0EB400B50B499CB01DAB029099
:104F80000690079104910948094904CB05910068EE
:104F900002A9019300F0DAF90022029B1A701CB0FA
:104FA00008BC03B01847C046FFFFFF7F9C000020ED
:104FB0000802FFFF00B59BB00091049106490591DE
:104FC000029106490391694600F0C0F90022009B56
:104FD0001A701BB000BDC046FFFFFF7F0802FFFF35
:104FE00010B5044C13000A0001002068FFF7E2FF2F
:104FF00010BDC0469C00002003008218934200D1DF
:10500000704719700133F9E70A7830B5002A0CD1DE
:1050100030BD9A4208D10123CC5C002CF8D0C55C8D
:10502000A54201D10133F7E701300378002BF0D11D
:105030001800EDE7014B18687047C0469C0000203F
:1050400070B500260C4C0D4D641BA410A64209D16E
:10505000002600F06DFC0A4C0A4D641BA410A64209
:1050600005D170BDB300EB5898470136EEE7B300A9
:10507000EB5898470136F2E7445A0008445A0008B2
:10508000485A0008445A00087047704770B5050038
:10509000002910D00C1F2368002B00DAE418280028
:1050A00000F0E2F81D4A1368002B05D1636014601C
:1050B000280000F0E1F870BDA34208D9206821184B
:1050C0008B42F3D119685B6809182160EEE71A007A
:1050D0005B68002B01D0A342F9D911685018A04297
:1050E0000BD120680918501811608342E0D118686C
:1050F0005B68411811605360DAE7A04202D90C23C3
:105100002B60D5E7206821188B4203D119685B68B2
:105110000918216063605460CAE7C0464C0400204F
:1051200070B50F4E0D0031680400002902D100F067
:10513000A1FB30602900200000F09CFB431C0AD03A
:105140000323C51C9D43A84207D0291A200000F064
:1051500091FB013001D101256D42280070BDC04690
:1051600050040020F7B50322CB1C934308330600FC
:105170001F000C2B38D20C27B94237D8300000F072
:1051800073F8384B00931B681C00002C33D1390096
:105190003000FFF7C5FF0400431C5ED1009B1C6874
:1051A0002500002D4ED1002C51D023682900E31892
:1051B0003000019300F05EFB019B834247D12368DE
:1051C0003000FF1A3900FFF7ABFF01303FD02368F2
:1051D000DB192360009B1B68002B40D05A68A24259
:1051E00033D100225A6014E0002BC5DA0C230025CD
:1051F00033602800FEBD2168C91B20D40B2918D9B3
:10520000E2192760A34212D1009B1A606368116003
:1052100053603000250000F02FF807220B35231DC6
:105220009543EA1A9D42E4D05B1BA350E1E75A6024
:10523000ECE76268A342D5D1009B1A60E9E723003E
:105240006468A2E72C006D68ABE71300C4E70C2389
:105250003000336000F010F8CBE72760D9E75B60DF
:10526000FFDEC0464C04002010B50248FFF70CFFDB
:1052700010BDC0464804002010B50248FFF705FFE6
:1052800010BDC04648040020F0B585B001930392DC
:105290008E68019A07000C000B68964231D88A8903
:1052A0009021C9000A4229D0032021695B1A029388
:1052B00063694343DD0FED18019B029801331B180E
:1052C0006D10AB4200D91D00520529D529003800C8
:1052D000FFF748FF061E2DD0029A216900F0E7FA79
:1052E000A289194B1A4080231343A381029B266194
:1052F000F61826606561019EED1AA560019B9E422D
:1053000000D9019E32000399206800F09FFA002026
:10531000A3689B1BA36023689B19236005B0F0BDA5
:105320002A00380000F0CCFA061EDFD138002169CF
:10533000FFF7ACFE0C2301203B60A28934331343FA
:10534000A3814042EAE7C0467FFBFFFFF0B5A1B072
:1053500003901D008B890F0016001B0611D50B69E9
:10536000002B0ED14021FFF7FDFE38603861002888
:1053700005D10C23039A0138136021B0F0BD4023FE
:105380007B61002308AC6361203363761033A3761E
:10539000079535002B78002B01D0252B48D1AB1B6E
:1053A0000593B5420BD0320039000398FFF76CFF2C
:1053B000013000D1AFE06369059A9B1863612B78D7
:1053C000002B00D1A7E0012200235242626004A911
:1053D000543252186E1C2360E360A3601370A365FF
:1053E000554B052218003178059300F055FA751CCD
:1053F00000281FD12268D30604D5532304A95B18C3
:1054000020211970130704D5532304A95B182B21FD
:10541000197033782A2B16D0350000210A20E36852
:105420002A786E1C303A092A4ED9002911D117E08A
:105430000135AFE7059B2268C01A0123834013435F
:105440002E002360CCE7079B191D1B680791002BDA
:1054500001DB0B9304E05B42E36002231343236010
:105460002B782E2B0AD16B782A2B35D1079B02354E
:105470001A1D1B680792002B2BDB09932F4E03226A
:105480003000297800F008FA002806D04023801B5D
:105490008340226801351343236029780622284877
:1054A0006E1C217600F0F8F900283CD0254B002B2B
:1054B00025D10722079B073393430833079363697A
:1054C000049A9B18636164E74343350001219B18EC
:1054D000A6E701235B42D0E700230A201A0001352A
:1054E000636029786E1C3039092903D9002BC5D097
:1054F0000992C3E74243350001235218F1E707AA96
:10550000009221003A00104B039800E000BF049085
:10551000049B0133D3D1BB890D985B0600D42CE7E3
:105520000120404229E707AA009221003A00064BD9
:10553000039800F07BF8EAE7105A0008165A0008B2
:105540001A5A00080000000089520008F7B516003A
:1055500001938A680B690C000090934200DA1300F3
:105560002200336043321278002A01D001333360C5
:1055700023689B0602D53368023333602268062312
:1055800015001D401A4227D0230043331B785A1EB2
:1055900093412268920630D4220001990098089D18
:1055A0004332A847013025D0062223680025134046
:1055B000042B05D13368E568ED1AEB43DB171D407A
:1055C000A3682269934201DD9B1AED180026B542BB
:1055D00020D1002010E00135E36832689B1AAB420D
:1055E000D2DD2200012301990098089F1932B847A3
:1055F0000130F0D101204042FEBD3020E11843319E
:10560000087021005A1C45310978A2184332023330
:105610001170C1E72200012301990098089F1A32F6
:10562000B8470130E6D00136D1E70000F0B58BB0C5
:1056300006920A0043320793059004920A7E0C00FA
:10564000109B782A09D8622A0BD8002A00D1BEE024
:105650007C490391582A00D193E0260042363270EB
:1056600022E0100063381528F7D8FAF755FD160028
:105670001F00F6FFF6FFF6FFF6FF1F00F6FFF6FF2E
:10568000F6FFF6FFA30036008300F6FFF6FFB40036
:10569000F6FF3600F6FFF6FF870026001A6842364E
:1056A000111D1960136833700123A2E0186809689E
:1056B000021D0D060BD505681A60002D03DA2D2397
:1056C000049A6D4213705F4B0A2703931BE0056831
:1056D0001A604906F1D52DB2EFE70D681968081D6B
:1056E00018602E0601D50D6803E06D06FBD50D6828
:1056F000ADB2544B082703936F2A00D00237230022
:10570000002243331A706368A360002B03DB04217B
:1057100022688A432260002D02D1049E002B0CD007
:10572000049E28003900FAF787FD039B013E5B5C6D
:1057300033702B0005009F42F3D9082F09D123684D
:10574000DB0706D5626823699A4202DC3023013EFA
:105750003370049B9B1B2361079B210000930598DA
:10576000069B09AAFFF7F2FE013047D10120404213
:105770000BB0F0BD202209680A432260782232492A
:105780000391210045310A701968226820C910066A
:1057900002D4500600D5ADB21960D30702D520233C
:1057A000134323601027002DA9D12022236893439F
:1057B0002360A4E71A680D68101D49691860136812
:1057C0002E0601D5196002E06D06FBD51980002375
:1057D000049E2361C0E71A68111D19601668002134
:1057E0003000626800F058F8002801D0801B60602B
:1057F000636823610023049A1370ADE732002369C4
:1058000006990598079DA8470130AFD023689B07EC
:1058100015D4099BE0689842AADA1800A8E722008C
:10582000012306990598079E1932B04701309DD093
:105830000135E368099A9B1AAB42F0DCE9E70025E1
:10584000F7E7C046215A0008325A000810B58842CE
:1058500002D98B18984203D3002307E08B5C835452
:10586000013AFBD210BDCC5CC45401339A42FAD148
:10587000F8E70000002370B5064D040008002B6017
:10588000FBF714FB431C03D12B68002B00D02360D3
:1058900070BDC04644040020C9B28218904201D1B4
:1058A0000020704703788B42FBD00130F6E70023DD
:1058B00010B59A4200D110BDCC5CC4540133F8E756
:1058C000F7B507000E001400002905D11100FFF7FD
:1058D00049FC05002800FEBD002A03D1FFF7D6FBD6
:1058E0002500F7E700F01BF80190844203D835004B
:1058F0004308A342EED321003800FFF733FC051E16
:10590000E8D0019B22009C4200D91A0031002800F7
:10591000FFF7CDFF31003800FFF7B8FBDAE70B1FC8
:105920001B68181F002B01DA0B58C01870470000C5
:10593000F8B5C046F8BC08BC9E467047F8B5C046EE
:08594000F8BC08BC9E4670474C
:105948003100000032000000330000003400000085
:105958003500000036000000370000005354415461
:1059680055530000434F4E4E4543544544000000F4
:10597800444953434F4E4E454354454400000000AC
:105988004D0DF709E907A606FA00FA00FA00FA0031
:105998002573000056312E303031000025730D0A72
:1059A800000000002564207365630D0A00000000F4
:1059B8006D6F64653A2025640D0A0000556E6B6EA4
:1059C8006F776E20436F6D6D616E640D0A00000085
:1059D80002030405060708090A0B0C0D0E0F101028
:1059E8000102030405060708090A0B0C0D0E0F1027
:1059F8000000000000000000010203040607080977
:105A08000000000001020304232D302B2000686CE5
:105A18004C006566674546470030313233343536C9
:105A28003738394142434445460030313233343502
:0C5A38003637383961626364656600002F
:045A4400E90000086D
:045A4800C100000891
:105A4C00485900084C59000850590008545900088E
:105A5C00585900085C59000860590008645900083E
:105A6C006C59000878590008010000000000770705
:105A7C00E1082F0BEE0E0000FA00FA00FA00FA0013
:105A8C00FA00000000127A0004000000010000007F
:105A9C00000000000C03002074030020DC03002035
:105AAC0000000000000000000000000000000000EA
:105ABC0000000000000000000000000000000000DA
